:020000041000EA
:1000000000B5324B212058609868022188439860DF
:10001000D860186158612E4B002199600221596106
:100020000121F02299502B49196001219960352056
:1000300000F044F80222904214D00621196600F024
:1000400034F8196E01211966002018661A6600F04E
:100050002CF8196E196E196E052000F02FF8012189
:100060000842F9D1002199601B49196000215960AB
:100070001A491B48016001219960EB211966A021F2
:10008000196600F012F800219960164914480160C1
:100090000121996001BC002800D000471248134993
:1000A000086003C880F30888084703B5996A0420EC
:1000B0000142FBD001200142F8D103BD02B5186610
:1000C0001866FFF7F2FF186E186E02BD00000240BE
:1000D000000000180000070000035F00212200005C
:1000E000F4000018222000A00001001008ED00E03C
:1000F00000000000000000000000000074B24E7A12
:1001000000200420F7010010C3010010C5010010F9
:10011000C1010010C1010010C1010010C101001097
:10012000C1010010C1010010C1010010C701001081
:10013000C1010010C1010010C9010010CB01001065
:10014000CD010010CD010010CD010010CD01001037
:10015000CD010010CD010010CD010010CD01001027
:10016000CD010010CD010010CD010010CD01001017
:10017000CD010010CD010010CD010010CD01001007
:10018000CD010010CD010010CD010010CD010010F7
:10019000CD010010CD010010CD010010CD010010E7
:1001A000CD010010CD010010CD010010CD010010D7
:1001B000CD010010CD010010CD010010CD010010C7
:1001C00000BE00BE00BE00BE00BE00BEEFF3058054
:1001D000103800BEF2EB887164840010888400102F
:1001E0003402001090A31AE700201F49086006C8D7
:1001F00081F3088810471D48006800282FD10DA4FE
:100200000ECC002902D000F012F8F9E71849194A7B
:10021000002000E001C19142FCD1174988471749ED
:1002200088471749884700BEFDE701C901C29A42C5
:10023000FBD3704788840010C0000020700F00209E
:1002400038930010000004200000042038930010B0
:10025000001004200010042000000000704709482E
:1002600004F014F90047000008ED00E0000000D0A1
:10027000700F0020481E0020D12C0010190600101D
:10028000C52D00105756000006005250ABB3605306
:100290001C82001006005250861C03022C820010A3
:1002A000060052505422A29D388200100500525080
:1002B000DE65F46838930010F8B5C0460448054B75
:1002C00010B5834203D0044B002B00D0984710BDDB
:1002D000700F0020700F0020000000000648074942
:1002E000091A8B10C90FC91810B5491003D0044B57
:1002F000002B00D0984710BD700F0020700F002019
:100300000000000010B5074C2378002B09D1FFF73F
:10031000D5FF054B002B02D0044800E000BF0123AD
:10032000237010BDA011002000000000C07E00104E
:10033000054B10B5002B03D00449054800E000BF71
:10034000FFF7CCFF10BDC04600000000A411002044
:10035000C07E0010D022032112065368526819484B
:100360009B0A120B0B400A40016870B5994210D0ED
:100370000168594003290CD001685C084C400121F8
:10038000114D0C40013C013121402C6801396118AC
:1003900029600E490C68944210D00C685440032C1C
:1003A0000CD00C68550865400124094E2540013DDC
:1003B00001342C403568013C2C1B346003600A601A
:1003C00070BDC04600170020041700200817002049
:1003D0000C1700200A4B10B51A680A4C0A4B200073
:1003E000196800F071FC094B20001968084B1A6865
:1003F00000F046FB0122074B01201A7010BDC046D9
:100400005015002080100020181B00200417002029
:100410000C170020861B002070B505F01FFB19206B
:1004200000F0C0FED024802324069B0463620A20CF
:1004300000F0B8FE8023DB00A362002201210A2025
:1004400000F040FE0B2000F0ADFE80231B01A362F4
:10045000002201210B2000F035FE0C2000F0A2FE4E
:1004600080235B01A362002201210C2000F02AFE00
:100470000D2000F097FE80239B01A3620022012142
:100480000D2000F01FFE154D01222B000C210A202B
:1004900000F030FE2B0001220C210B2000F02AFE80
:1004A0002B0001220C210C2000F024FE2B00012245
:1004B0000C210D2000F01EFE0322636808499B0AF0
:1004C00013400B6063681B0B1A40064B1A6001F067
:1004D000FBFE054B1860596070BDC0465503001007
:1004E0000017002008170020700F002082B0F0B520
:1004F000D6464F464646C0B59CB0804689462492B3
:10050000259301F0E1FE3E4B1A685B68801A994121
:1005100000233C4A04000D0004F034F83C22002380
:1005200004F030F80023170020002900364A04F0B8
:1005300029F83C22002304F025F8002316002000AF
:10054000324A290004F01EF88246329804F074FF03
:100550001A901B91319804F06FFF18901991309800
:1005600004F06AFF169017912F9804F065FF14901D
:1005700015912E9804F060FF129013912B9804F0BF
:100580005BFF109011912A9804F056FF0E900F9186
:10059000299804F051FF0C900D91289804F04CFF1D
:1005A0000A900B912D9804F047FF089009912C9820
:1005B00004F042FF06900791484604F03DFF049086
:1005C0000591404604F038FF002302900391104A41
:1005D0002000290003F0D6FF6422002303F0D2FF9D
:1005E0003B000092514632000A4805F02BFA1CB03D
:1005F0001CBC90469946A246F0BC08BC02B0184705
:10060000700F002040420F000087930300A493D690
:1006100010270000C07E0010F0B5DE4657464E465B
:100620004546E0B5A9B0FFF7F7FE01F02FFB18AB88
:10063000029300230193304B304A0093002301F0D2
:10064000F1FB00280CD1D02580242D06A4043220F3
:100650006C6101F04BFD2A48AC6101F047FDF6E703
:10066000284B98464246284B136001F02DFE274B3D
:10067000274E9B4613AB994608AB119300239A462D
:100680000E900F913378002BFCD05346337001F05D
:100690001BFE02000B0004000D000E980F99121AA9
:1006A0008B41002B03DCEDD11A498A42EAD943463B
:1006B0001B6859460E93184B1EA81B68109300F038
:1006C000AFFB4846594600F0B7FB4A46119B83CA28
:1006D00083C381CA81C36B4620AA83CA83C383CAEA
:1006E00083C381CA81C31E9A1F9B10990E98FFF77E
:1006F000FDFE0E940F95C5E7D5030010204E0000B7
:10070000DC050000181B0020CDCCCCBD80100020E3
:10071000861B00203F0D03005015002010B588B047
:1007200001A90A00074B13CB13C213CB13C2192321
:10073000054A009305490023054800F031F908B047
:1007400010BDC046580E00206F12833ACDCCCC3D70
:100750008010002070B5040018000125A360049BE0
:100760002160E361059B6260236203075B0FE36026
:100770002B0003402361042100F08CFC1921E26866
:10078000802693009B181B4A9B009A1851601A49B7
:1007900076011161194A2068944622696344511E0A
:1007A0008A41174952420A4016498C4619686244E8
:1007B00033430A401A6000F0F5FC606800F0F2FC78
:1007C00029002A00236860689940D02382401B06D4
:1007D00059625A6299619A61E268200093009B18FD
:1007E000044A9B00944663441A68334395431D6052
:1007F00070BDC04600000540FD0F00000C00054024
:100800000100FEFFFFFF000070B5066A0500301C06
:100810000C1C04F0BFFD002800D0341CEE69211C24
:10082000301C04F0BFFD002800D0341C2349201CDC
:1008300004F07BFD04F0C3FD02B2030424D40123C1
:10084000180029688840D0210906886168688340BB
:100850004B61E9688B005B1819499B005C1829699A
:10086000002928D1174920684240114080225201B6
:1008700022431160144A991801220B689A4380237D
:100880005B010B431A6070BD012318002968884082
:10089000D02109064861686883408B61E9688B0054
:1008A0005B1807499B005C18D11752184A40296908
:1008B00092B20029D6D005491204D4E700F07F4552
:1008C0000C000540FFFF0000000005400000FFFF96
:1008D00083600023C3600361009B4361019B01604F
:1008E0008361029B4260C3617047C046F0B5C64653
:1008F0000400984600B5081C111C04F0FCFC41469D
:10090000051C04F012FD216904F0F8FC6669206101
:10091000311C071C04F04EFD002809D180231B0662
:100920009C466644311C381C04F02EFD002834D04F
:100930002661E168281C04F0DEFC414604F0E1FC7D
:100940002168071CE560281C04F0EFFC6168051CA9
:10095000301C04F0EAFC011C281C04F0CFFCA16848
:10096000051C381C04F0E1FC011C281C04F0C6FC2A
:10097000E669051C011C301C04F006FD002806D1A8
:10098000A669291C301C04F015FD002803D0301C7A
:1009900004BC9046F0BD2E1CF9E73E1CC9E7C046DA
:1009A000F0B5DE464E46574645469846E0B5914678
:1009B000426042468260402287B010AE08CE0025D9
:1009C0000593FE2393462D4A9B0501604561856191
:1009D000C56105624562856283440193009204000B
:1009E0000F1C119BB26871685846FFF7B3FE642173
:1009F000F36872698A463169FE262048A244B6052A
:100A0000019600905046FFF7A5FE02962300FC26B3
:100A10001A4AB6058833019200964246391C1800DE
:100A20004B46FFF755FFFE2320000096E026134AB1
:100A30009B05029301924B464246391CB430FFF7A6
:100A400047FF059B5846A351291CFFF7DDFE504682
:100A5000291CFFF7D9FEA059E561A56200F0A2FBB1
:100A60000123A25920009340D0221206536207B0FE
:100A70003CBC90469946A246AB46F0BD000080BF04
:100A8000F0B5DE4657464E464546E0B587B006000F
:100A90001700884601F018FCB26BF36B04000D00E0
:100AA000801A994104F06CF800227D4B03F091FF0D
:100AB00004F072F8B463F5638246404604F018F817
:100AC000784A794B03F0A3FF0022784B03F081FFB3
:100AD00004F062F8EC23F050380004F009F8714A91
:100AE000714B03F094FF0022704B03F072FF04F08F
:100AF00053F8F023F0500C3BF1584346581A049336
:100B0000009103F0F5FF6A4A6A4B0090019103F0EF
:100B10007EFF0022654B03F05CFF04F03DF8E82106
:100B20003C007758051CE01B0297059403F0E0FF9A
:100B30005F4A604B0290039103F069FF5B4B002218
:100B400003F047FF04F028F8041C011C281C04F0E3
:100B5000D5FBFC21890504F0E8FB8A214900894680
:100B60007158071C081C884604F070FC862252004D
:100B70009346011C381C04F0D8FB5A46011CB0589F
:100B800004F0BCFB59467050404604F071FC8822CA
:100B900052009346011C381C04F0C7FB5F46011C41
:100BA000F05904F0ABFB291CF051201C04F0A3FB0E
:100BB000414904F0A6FB414604F0A0FB4D468223C8
:100BC0007051F5695B00F550A9468425B76A6D0040
:100BD00077515046394904F0A8FB04F02DFCA84693
:100BE00004000D00009801992E4A2F4B03F00FFFCF
:100BF00022002B0003F0EDFE03F0CEFFF423071CD0
:100C0000F050284A02980399274B03F000FF220076
:100C10002B0003F0DEFE03F0BFFFF825041C70512B
:100C2000011C381C04F06AFB254904F07EFB8C2370
:100C30005B00F050391C201C04F05DFB214904F0DE
:100C400074FB8E235B00F0503000534649463462FB
:100C50003A1C77618830FFF749FEFC24305140464A
:100C60003158300072595346B430FFF73FFE083513
:100C70007051300031594030FFF7C6FD30007159D6
:100C80006430FFF7C1FDE423049A059CF25004335D
:100C9000F45007B03CBC90469946A246AB46F0BD26
:100CA00080842E41182D4454FB2119400000A94096
:100CB000BEBCA37B2F1BD43F7B14AE3E0000484537
:100CC000CDCCCC3C9796163EF0B54546DE46574611
:100CD0004E46E0B5040089B0081C151C884604F097
:100CE000ABFB434A434B06000F0003F0E9FE00282C
:100CF00055D1300039003E4A3F4B03F0CBFE00286F
:100D000065D03E4BC02699463D4B3B4F9846360634
:100D10008021281CC90504F04DFB00284DD1C021BD
:100D2000281C090604F030FB002856D0C0230022FE
:100D30001B0606920793334BC0259A462D06514653
:100D4000484604F0D8FA304904F0DBFA51468346AD
:100D5000484604F0D3FA2C4904F0D3FA43462563FD
:100D6000E362814604F068FB04900591584604F064
:100D700063FB069A079B029003910092019323481C
:100D80003B00320004F05EFE5B46E3614B46A3622B
:100D900009B03CBC90469946A246AB46F0BD8021C6
:100DA000C0261B4BC90599461A4B281C9846114F63
:100DB000360604F0FFFA0028B1D0802300228025F7
:100DC000DB0506920793144BED059A46B7E74146BB
:100DD000404604F093FA81469AE71049281C04F033
:100DE000A4FA8246281C04F027FB06900791A6E788
:100DF000CDCCCCCCCCCCDC3FCCCCDCBF666666BFEB
:100E00006666E6BE7B142EBFCDCCCC3D187F0010AD
:100E10006666663F6666E63E7B142E3F7B14AE3EFA
:100E2000030030B5E43134C934C334C934C334C9E0
:100E300034C30A681A6030BD030030B50D31FF318C
:100E400034C934C314C914C330BDC046D0231B06F3
:100E50001B68F0B59A00454690464146894ADE46F1
:100E60005258574693465A1E934130224E465B4293
:100E70001A40854BE0B59C46844B08269A4683B0C1
:100E8000624400923500083DEA08130000990833D7
:100E90009B005C58002C23D05B46002B2AD00123FA
:100EA0000F27994639002140274213D04B4652461E
:100EB0004046AB4012581A420CD1072208002A4083
:100EC000920090400200EB0871483C339B001A509E
:100ED0002800D84724090135002C01D0B542E1D3C0
:100EE0000836282ECED103B03CBC90469946A24687
:100EF000AB46F0BD0F2319002140234207D04746DF
:100F00000E3BAB406148C059184200D196E023091E
:100F1000F11F002BE4D00F22100018401A420FD00E
:100F2000012345468B40594A52591A4208D107229B
:100F3000CB08114089008840554A3C339B009850AB
:100F4000230AB11F002BCBD00F22100018401A42E9
:100F50000FD0012345468B404C4A52591A4208D1C2
:100F60000722CB08114089008840494A3C339B0046
:100F70009850230B711F002BB2D00F221000184085
:100F80001A4239D1230C311F002BA9D00F22100097
:100F900018401A4241D1230DF11E002BA0D00F2280
:100FA000100018401A4252D1230EB11E002B97D0C8
:100FB0000F22100018401A4206D0012345468B40EC
:100FC000324A52591A4253D0240F721E002C00D1BB
:100FD00086E70123404693402C4909580191194264
:100FE00000D07DE70721D3080A40920094403C33AB
:100FF000274A9B009C5073E7012345468B40234AB8
:1010000052591A42BED10722CB08114089008840AC
:101010001F4A3C339B009850B4E7012345468B4060
:101020001A4A52591A42B6D10722CB0811408900F8
:101030008840174A3C339B009850ACE707231D407B
:10104000AD00A940124B3C329200D1505FE7012322
:1010500045468B400D4A52591A42A5D10722CB086A
:101060001140890088400A4A3C339B0098509BE716
:101070000722CB08114089008840054A3C339B0079
:101080009850A1E754160020004101403C1B00206D
:1010900000400140094A830094464022634410B551
:1010A0001C68C0006240C0241440802252011343D7
:1010B0001C60034B9C466044416010BD04C001406D
:1010C000004001400A4B80009C46042360440029F4
:1010D00001D00C230821002A00D10B0002685340E4
:1010E0000C221A4080235B01184302607047C046FF
:1010F00004C00140F8B51E00D0231B061C68070081
:10110000631E9C41302364421C40224B15009C46C8
:10111000C30807201A003840800081403C321E4836
:10112000644492009B001150E418002D11D08023DC
:101130009B011C43D02321601B061C68174FA40091
:101140003B59002B11D0002E1ED03E51002D16D140
:10115000F8BDC0239B011C43D02321601B061C68E3
:101160000E4FA4003B59002BEDD1002EEED00022F3
:101170000D200B493E5100F039F9002DE8D0012136
:101180000D2000F0D1F8E3E70D20054900F010FA3A
:10119000DBE7C046004101400040014054160020FA
:1011A0004D0E00100123D0228340120693629361FA
:1011B000094A83009446402263441968C0004A40AB
:1011C000C02111408022520113431960034B9C46F9
:1011D000052360444360704704C001400040014063
:1011E000024B18688007C00F7047C04600C0064019
:1011F000F8B5EFF3108772B60E4E3368002BFCD0B3
:10120000BFF35F8FCB08C4180725A446C45C012335
:101210000D40AB4018002040234208D162462343D2
:101220001370BFF35F8F306087F31088F8BD100034
:1012300001F0CCFD2C0100D0F8B5CE4647468C46D7
:1012400080B5EFF3108872B6214D2C68002CFCD0CD
:10125000BFF35F8F9A422CD8D4080721055D061989
:10126000012411408C402C421FD0072189460639A9
:1012700009E0D408055D06194C460F001440A7404C
:101280003C002F4211D001329342F2D20120404261
:10129000BFF35F8F00220E4B1A6088F3108800287E
:1012A0000FDB0CBC90469946F8BD2C4310003470FF
:1012B000EEE7BFF35F8F00232B6088F310880120D7
:1012C00040426346002BECD0089801F07FFDC046F9
:1012D0002C0100D00021044B044ABFF35F8F02C3EE
:1012E0009342FAD17047C046000100D0800100D07F
:1012F000044A1078431CDBB2172B00D9102313705B
:101300007047C046700E002000B5054B83B0010049
:10131000009318221F230348FFF78EFF03B000BD80
:101320003C7F00106416002001238340002904D074
:10133000034A1360034A13607047034A1360FBE7D4
:1013400080E200E000E100E080E100E00123834072
:10135000014A13607047C04600E200E0084B1030BD
:101360009B688000C358002B07D0064A00209B1AB8
:101370002F229A424041C0B270470020FCE7C0468D
:1013800000ED00E0740E0020024B10309B688000DE
:10139000C058704700ED00E070B50D00EFF3108607
:1013A00072B60F4A1368002BFCD0BFF35F8F0D4B52
:1013B00010309B6884001B590B4A934203D09D4216
:1013C00001D001F01BFD074B9B681D51BFF35F8FE0
:1013D000BFF35F8F0022024B1A6086F3108870BD46
:1013E000240100D000ED00E0CD010010F0B557461B
:1013F0004E464546DE46E0B5894683B005001700F7
:10140000EFF3108A72B65E4A1368002BFCD0BFF36C
:101410005F8F00205B4B18569B46002800DA6CE07B
:101420005A464400584E2418A400331998469B7914
:1014300010351370554BAA009B6801929B589C462F
:101440009B1B2F2B28D8012261469143CB79BB42AD
:1014500008D86AE053009B189B00F318DD79BD4261
:1014600051D9190006228A56002AF3DA0B1D9B4631
:10147000474E43465C46043B1B1B1B05454C5B0D1E
:1014800023438B80887141468A714A46424B8E8045
:101490000B60CF718A601BE0404B9C4542D14246B5
:1014A0003F4B023413803F4B3619043B9E1B3605DD
:1014B000384B760D1E433C4B56809380FF23D771EB
:1014C000937143464A469A60012342461A43944622
:1014D00061462E4B019A9B689950BFF35F8FBFF313
:1014E0005F8F0022264B1A608AF3108803B03CBC41
:1014F00090469946A246AB46F0BD01F07FFC5B46A4
:10150000002018568CE70B1D9B468B8804345B0526
:101510001B155B4436199E1BE0233605760D1B0216
:101520001E43A6E701F06AFCB9E745460B001F48D9
:101530009B1B5B415843000D194B2B80A31C9C4601
:10154000B4446546174B0434043B5B1B1B05114D2B
:101550005B0DAC462B43454636196B800B1F9E1B1B
:101560006346A87148463605760D1E430A4BAE8089
:10157000EF71A8600B60434613439C46A8E7C04642
:10158000240100D0811B0020740E002000ED00E03B
:1015900001BD000000E0FFFF01488047CD010010C1
:1015A00000A1FFFFA40E002001BDFFFFAAAA0000BA
:1015B000F0B5DE4657464E464546E0B50C0083B0D2
:1015C000EFF3108972B6594A1368002BFCD0BFF3B1
:1015D0005F8F574B9A68030010339F00D559554AC7
:1015E0009046954232D0A54243D0534EAA1B2F2A93
:1015F0002CD80122824092465146504A126811402E
:10160000019151464E4A1160BFF35F8FEFF305829F
:101610009346002A33D101232A009A4393689C42BF
:1016200008D178E04B005B189B00F3189968A14241
:101630002AD01A00062151560029F3DA019B002B0B
:1016400019D052463F4B1A603C4B1A60384B9B688E
:10165000DD51BFF35F8FBFF35F8F0022334B1A6002
:1016600089F3108803B03CBC90469946A246AB462D
:10167000F0BD1500EAE75246314B1A60E6E79342A7
:10168000C9D001F0BBFBC6E706215956002922DB71
:101690004A005018800034188046A0689860E079AD
:1016A000D871062020569871A0797F2824D8A48864
:1016B000F01A6405241544440019E0240005400D87
:1016C00024022043988052181F4B9200B6181A78B3
:1016D0001970B271B2E7594600290FD1FF319171EB
:1016E0001A49918018490A789A71194A9B1B5B41E3
:1016F0005A43120D0A70A1E71648E3E7164A174944
:10170000D21A083A5002400D0143998014495208F8
:101710000A43DA8092E70621515613000029B7DA0E
:101720005A46002AEAD14546DCE7C046240100D0EB
:1017300000ED00E0CD010010740E002000E100E09B
:1017400080E100E080E200E0811B002001BDFFFF9E
:10175000AAAA000001BD0000AE0E002000F0FFFFAD
:1017600000F8FFFFF0B5EFF3058101240443EFF328
:10177000108672B6214A1368002BFCD0BFF35F8F2E
:101780001F4B05001F4AED1A6D416A43120D1E4D95
:101790008900AF6852B27F58A7421CD00621595623
:1017A00091421CD012215956914222D01E215956E5
:1017B000914220D02A2159560324914210D0134B34
:1017C00019781A708171BFF35F8F00220B4B1A607A
:1017D00086F31088F0BDAB680D4C5C50EFE7002439
:1017E0006100091989005B18FF21997109499980E5
:1017F000E5E70124F4E70224F2E7C046240100D023
:10180000740E0020AAAA000000ED00E0811B002059
:10181000CD01001001BDFFFF054B064A1360064ACB
:10182000136053609360D360136153619361704799
:101830008080808000E400E004E400E000B5074B15
:1018400083B001000093002205230548FFF7F4FC54
:10185000002801DB1F23181A03B000BD587F0010B9
:10186000871B0020024B9C46614489000160704741
:101870004000003410B50400FFF73AFD01002000DD
:10188000FFF7F0FFFF232371BFF35F8F10BDC0464A
:1018900010B50400FFF72CFD01002000FFF7E2FF68
:1018A000FF23A380BFF35F8F10BDC04610B50400B7
:1018B0000120FFF729FD034BC3189B002360BFF3F2
:1018C0005F8F10BD40000034034B9C46614489008B
:1018D0000160BFF35F8F70474000003483680B489E
:1018E00010B5844661446244090112019A185918DE
:1018F00054684B6801209C4201D802D00020C0B23D
:1019000010BD12680B689A42F9D8F7E7FFFFFF0F86
:1019100010B508000B690C009847002802D0206819
:10192000616810BDE06000210020FAE70A4B1968E9
:10193000EFF3108072B60A68002AFCD0BFF35F8F05
:101940001B68BFF35F8F00221A6080F3108840BFCE
:10195000002000217047C046501B0020F8B55746B4
:1019600045464E46DE46E0B599460CAB19780DABC0
:101970001B78050090469A460768002912D1BE7B65
:10198000002E45D074003B68A419033C1B195A78FB
:101990003100BA73002A00D1FA7300229A705A708B
:1019A0001A7003E00E004C006418033C2C4B00221C
:1019B0009C46AB6861449C464346090161440B6008
:1019C0004B464B600A9B8B600B9BCB603B681B19A3
:1019D0009A705A701A707B7B9B46002B2CD0320079
:1019E0005946B8687B6898473A68002817D05B4624
:1019F00058465B005B441419033BA070D118D35CBC
:101A0000002B00D063705B460E707B73B34514D01F
:101A100030003CBC90469946A246AB46F8BD5B46BA
:101A20005B005B44033BD3189E701119125D002AC2
:101A300000D05A705B460B707E7342464B46287D41
:101A400000F0A2FC041E06D05346002B03D1310047
:101A5000286800F0DFFE0E9B002BD9D01C70D7E762
:101A6000FFFFFF0FF0B5DE4657464E4645460023C2
:101A7000E0B58BB00893674B8200D45800239B4697
:101A8000099000F021FC626806000F00EFF310855A
:101A900072B61368002BFCD0BFF35F8F23689C469F
:101AA0005B7B9946002B00D169E0A2685A4B9046B7
:101AB0004B441B01984443461A685B6810001900A8
:101AC000801BB941002900DC63E0099800F05CFC50
:101AD00000230022984600230692079300239A468B
:101AE0006368BFF35F8F5A461A6085F310885346C8
:101AF000002B08D10028C4D10BB03CBC90469946BD
:101B0000A246AB46F0BD089B414618024B4618431F
:101B1000D047626806000F00EFF3108572B61368B5
:101B2000002BFCD0BFF35F8F002F50DB33003B4313
:101B300002D02369002B61D12368DA7B002A07D009
:101B400051008A1819688C4649466244033A51701C
:101B50009A7B002A01D14A469A734A46DA734B4669
:101B6000E168013BCA5C0132CA545B462361636889
:101B7000BFF35F8F5A461A6085F3108881E7002310
:101B800000229846002306920793002300209A46DD
:101B9000A6E7002902D1002800D096E70021604680
:101BA00000F096FD43461A685B6806920793434629
:101BB0009B689A464346DB689846E3684B44013B82
:101BC0001B7808931B0203432361002088E72369E5
:101BD000002BB1D0069A079B921BBB41002B15DB53
:101BE00059460491012103914946029141460191D0
:101BF000514620000091FFF7B1FEB6E700F064FB0C
:101C000032003B0012184B41002BE9DA0122034B52
:101C10005242E5E72C1B0020FFFFFF0FFFFFFF7F75
:101C200010B5144C6368002B04D00A211248FFF74A
:101C300019FE10BD2300114A1021206800F062FC3B
:101C4000032000F035FB032000F008FC03200C49C2
:101C500000F054FBFFF74CFB0A4B9C460323237513
:101C6000D0231B061B6860446375074B80006060CF
:101C7000DC60DAE7BC0E0020501B0020DD180010ED
:101C8000651A0010400000342C1B002000487047EB
:101C9000BC0E0020F0B54E464546DE465746E0B540
:101CA00085B0019310AB1B78804603930023002678
:101CB0009946009243465A68EFF3108B72B6136848
:101CC000002BFCD0BFF35F8F43461D68AC7B002C1C
:101CD00043D067002B683F19033FDB195A78AA737A
:101CE000002A00D1EA7342469E705E701E709268B0
:101CF000494B94460099019AE3181B01634419600B
:101D00005A600E9A9A600F9ADA602B68DB199E70FF
:101D10005E701E706B7B9A46002B68D02200190003
:101D2000A8686B6898472A68002853D053465046E5
:101D30005B005344D719033BB870D118D35C002B18
:101D400000D07B7053460C706B73544550D04346A3
:101D5000DB681B19013B187800E0002043465B68F4
:101D6000BFF35F8F1E608BF31088002C51D04B4661
:101D7000002B08D10002204305B03CBC9046994698
:101D8000A246AB46F0BD039B002B40D00E9B00202B
:101D90000F999847030004000D000B4337D000292A
:101DA0000ADA009A019B121BAB4100920193002BAF
:101DB0000ADB039B99467DE700F086FA24184D4123
:101DC00000940195002DF4DA0123144C5B4200933A
:101DD0000194EEE753465B005344033BD3189C70D9
:101DE000D119D25D002A00D05A7053460B706C7323
:101DF0004346187D009A019B00F0C6FA81460028F0
:101E0000A5D043462100186800F004FD9FE700209C
:101E1000B2E701204042AFE7FFFFFF0FFFFFFF7F68
:101E2000407D7047F0B54E464546DE4657461100A8
:101E3000E0B585B08046109E194300D1D3E0D81795
:101E4000070057403C0007005F4001003D00241A96
:101E50008D4141467360B1600F9B0E9932603161D4
:101E6000736100F031FA0019694100900191002975
:101E700000DAC8E00023B1469A46464602937368EA
:101E8000EFF3108B72B61A68002AFCD0BFF35F8F95
:101E90003568AC7B002C5FD067002B683F19033F8F
:101EA0000394DB195A78AA73002A00D1EA735246C8
:101EB0009A705A701A70B268584B94460099019AF9
:101EC000E3181B01634419605A60554A9A604A46F8
:101ED000DA6052462B68DB199A705A701A706B7B65
:101EE0009846002B00D170E022001900A8686B68AA
:101EF00098472A6800285CD0434640465B0043442C
:101F0000D719033BB870D118D35C002B00D073E015
:101F100043460C706B73444558D0F3681B19013B62
:101F20001B787268BFF35F8F514611608BF3108886
:101F3000002C63D0029A002A12D1039A1B02134389
:101F400001224E4602920298F36005B03CBC9046D6
:101F50009946A246AB46F0BD002200230392E0E77B
:101F6000484603699847071E02D14E460023EAE718
:101F70004B461C685D6823002B434AD0002D09DACC
:101F8000009A019B121BAB4100920193002B09DBCD
:101F9000029774E700F098F924184D4100940195D8
:101FA000002DF5DA01231F4C5B4200930194029748
:101FB00065E743465B004344033BD3189C70D1194B
:101FC000D25D002A14D143460B706C73307D009AA9
:101FD000019B00F0D9F9029000289ED021003068C2
:101FE00000F018FC99E7012400250122002330E7C6
:101FF0005A7043460B70E8E77B7089E700234E4632
:102000000293013B9FE70123064C5B42009301943E
:1020100030E74E460023029795E7C046FFFFFF0FCB
:1020200011190010FFFFFF7FF0B504000D00062618
:102030007642F717C64636196F4100B584B08F4215
:1020400014D811D000F040F932003B00121A8B4135
:10205000002B15DC002B3ED02000290000F03EF9BB
:1020600004B004BC9046F0BD8642EBD900260027A0
:1020700000F02AF932003B00121A8B41002BE9DDF7
:10208000002302930193154B3200009314483B0048
:10209000FFF700FE0028DFDB00239846BC46114A0C
:1020A000114F7B6A9C4504D8B96A8E42D4D99C45AD
:1020B000D2D11168EFF3108072B60B68002BFCD000
:1020C000BFF35F8F1368BFF35F8F4146196080F3E2
:1020D000108820BFE5E7002ABED0D1E72D190010F7
:1020E000BC0E0020501B00200040054070B50600CB
:1020F00000F0EAF8FA2204000D000023300000216D
:10210000920003F0DBF800196941002902DBFFF7B8
:102110008BFF70BD012001494042F8E7FFFFFF7FC0
:10212000F0B5EFF30583CE46474680B505000C00B9
:1021300085B0002B12D02C4B0020596A8C4203D85A
:102140009B6A0130AB4204D305B00CBC9046994663
:10215000F0BD611A481E8141C8B2F5E7234E0293D3
:102160000193234B0200009330000B00FFF792FD18
:10217000031EE0DD20BF7168EFF3108772B60A68B6
:10218000002AFCD0BFF35F8FDAB294463068427BFE
:1021900062451DD0FF221A405100894601689144D2
:1021A00088464946414403398978002913D0F168AB
:1021B0001B0A88464244013A1278DBB29A420FD099
:1021C0007368BFF35F8F00221A6087F31088B2E74D
:1021D000FF221A40EBE732699342F1D13161EFE718
:1021E000614600F017FBEBE700400540BC0E002005
:1021F0002D190010F0B5EFF30582D6464F4646463E
:102200001000C0B51038EFF3108872B6214C236867
:10221000002BFCD0BFF35F8F0123190081401E4DBE
:102220001F006963AA461D4D29601D4D2E78AC46DE
:102230003500C5402F402B4215D05346194D5F6ADB
:1022400083005D59AF4218D3174A8E439B586246AC
:102250001670BFF35F8F0022226088F31088002B76
:1022600006D0984704E0BFF35F8F276088F310889B
:102270001CBC90469946A246F0BD0C4B92009C4671
:10228000624413681360BFF35F8F0023236088F3F9
:102290001088EDE7280100D0004005403C70054063
:1022A000851B00205C1B002040150020D03F05400E
:1022B00010B50100024A0348FEF79AFF10BDC04660
:1022C000747F0010801B0020034B596A0A00986A33
:1022D000596A8A42FAD1704700400540064A536A5B
:1022E0009942FCD807D1044B02E05A6A914202D1CC
:1022F0009A6A8242F9D370470040054070B50400E5
:102300000D00EFF3108672B61A4A1368002BFCD04A
:10231000BFF35F8F002D1BD02000FFF735F8164963
:1023200081420AD02000FFF737F801212000FEF794
:10233000FBFF0123A340114A1360114BA400E55099
:10234000BFF35F8F00220B4B1A6086F3108870BDBD
:102350000B4BA200D5500122A2400A4920000B7865
:1023600093430B700449FFF723F900212000FEF787
:10237000DBFFE5E7280100D0F521001038600540BB
:1023800040150020851B0020F0B54F46D646464636
:10239000C0B507002C4C616A0D00A66A616AA942AB
:1023A000FAD18B4208D805D001201CBC9046994632
:1023B000A246F0BDB242F7D9EFF3108972B62348B6
:1023C00001680029FCD0BFF35F8F01252049BD4083
:1023D0008C4609781C4C0E002E438846F1B28A4682
:1023E000614650460870391D1A48890065630A51D4
:1023F000B9000B50216A0020294219D0616A0800F7
:10240000A66A616A8142FAD18B4219D801D1B242DF
:1024100016D8C24516D00C4B1F201D625D630123E8
:102420000740BB400C4A1E381360634642461A7090
:10243000BFF35F8F0022054B1A6089F31088B4E761
:102440000020F5E70120F3E700400540280100D017
:10245000851B00205C1B002080E200E010B5EFF33C
:10246000108472B60A490B68002BFCD0BFF35F8F53
:1024700001238340074A0848136202789A43027096
:10248000BFF35F8F00230B6084F3108810BDC0463C
:10249000280100D000400540851B002070B50500D4
:1024A0000E001400002924D0002A24D080686B6814
:1024B0009847296800280ED063001B197200033B5F
:1024C0009219CB18033A9E7088188A5C002A14D19E
:1024D000047030000EE073009B196200033B121978
:1024E000CB18033A9C7088188A5C002A00D05A7076
:1024F0000670200070BD0800FCE75A7004703000C0
:10250000F8E7C04630B583600023CCB24373013393
:10251000047342608373C4730D000068012C06D9F4
:10252000421C0133DBB2137003329C42F9D1FF210C
:1025300029404B005918002340180338437030BD20
:10254000F8B5CE46474606000C0080B5002907D0F6
:102550004D0003686D18033D5A195778002F04D1B8
:1025600020000CBC90469946F8BD7900C919033982
:1025700088464344597889460021597051707368E0
:102580003A002100806898473368002814D04246FA
:102590009A18947059195B5D002B00D053700F701E
:1025A000270049463000FFF7CBFF3900020030001A
:1025B000FFF774FF0400D3E7424641465D19AF7050
:1025C0009A185B5C002B00D06B701470E9E7C04672
:1025D000F0B557464546DE464E46E0B50D006B0069
:1025E00001685B19DF1E0400C85D83B00192CA193F
:1025F000002850D043001B18033BCB185E78B4462C
:10260000002E1AD1019E002E42D0E67B002E04D06F
:1026100073009B19CB18033B5D70A37B002B00D18B
:10262000A573E57300282FD10023537003B03CBC81
:1026300090469946A246AB46F0BD72006244033A0A
:1026400089184A78904600224A7091465A700100D3
:1026500032002000FFF722FF43468246002B07D0BE
:102660005B0021684344033BCB185A78002A16D1FB
:10267000424651462000FFF711FF2168019BCA190D
:10268000002BC2D10028CFD043001B18033BCB182E
:1026900000219970C8E7019B002BB6D1C4E7500018
:1026A000801803380918487883464846487058709F
:1026B00041462000FFF7F2FE594680462000FFF712
:1026C0003FFF414602002000FFF7E8FE8046CFE7CB
:1026D000F0B54E464546DE465746E0B5467B04001B
:1026E00075000068AD19033D83B00191415D421949
:1026F000002952D04B005B18033BC3185F78BC46DF
:10270000002F1CD1019D002D44D0E57B002D04D06D
:102710006B005B19C318033B5E70A37B002B00D1D9
:10272000A673E673002931D1002330005370617322
:1027300003B03CBC90469946A246AB46F0BD7A0039
:102740006244033A801842789346002242709146D0
:102750005A7020003A00FFF7A1FE5B468046002B2E
:1027600007D05B0021685B44033BCB185A78002AF2
:1027700017D15A4641462000FFF790FE019B010009
:1027800020684219002BC0D10029CDD04B005B1826
:10279000033BC31800209870C6E7019B002BB4D1FF
:1027A000C2E7500080180338091848788246484626
:1027B0004870587059462000FFF770FE5346834614
:1027C000002B07D05B0021685344033BCB185A7899
:1027D000002A06D1594652462000FFF75FFE834685
:1027E000C7E7500080180338091848464F784870EA
:1027F000587051462000FFF751FE390081462000F5
:10280000FFF79EFE494602002000FFF747FE824682
:10281000E0E7C04670B5040000292CD0437B8B4212
:102820002ED0056848004018033828188278002AFE
:1028300021D053009B18033BEA5CEE188A4202D178
:102840001BE0002A08D053009B18033BEB185A7872
:102850008A42F6D142785A70002301228370437075
:102860002000FFF7B5FE617B02002000FFF716FE97
:102870006073012000E0002070BD43783370EBE707
:1028800001221900FFF7A4FE60730120F4E7C0469F
:1028900030B50C2083B000F0B3F9FEF7A1FC00289E
:1028A0000ED0994B994A1A605A609A60DA601A61A0
:1028B0005A619A61DA611A62954A5A6203B030BD70
:1028C000944CA06700F0F0F90122934B1A60636CFE
:1028D000012BFCD10322914B1A608E4A936B012B82
:1028E000FCD1013301218E4A8E480093043300F05D
:1028F00037F905238C4A009301218C4800F030F908
:102900008B4B5A68FF2A02D8802252005A608022DC
:102910007D4C824B21691201854D1A60002907D038
:10292000606901F009FE431C5800C0180338FDD24D
:10293000E0217F4B02201A681140802252012A4375
:1029400011601968484003210140116004219A6810
:102950001142FCD08022802192012A43090111609A
:10296000802252005A60734B2361734B5968FF29D0
:1029700000D85A6003227048674B01211A60020098
:1029800093681942FCD0E02513681D4080235B0149
:1029900003431D6012684A4003211140196002215F
:1029A000654A93681942FCD0802380219B01034330
:1029B000090119608021614B490051606361604BDE
:1029C0005A68FF2A00D8596080225E4BE1691201E3
:1029D0005B4D1A60002907D0606901F0ADFD431C12
:1029E0005800C0180338FDD2E02255490B681A4040
:1029F00080235B012B431A60802380229B012B43A1
:102A000012011A608022414B52004A60E3614E4B32
:102A10005968FF2900D85A6080224C4B216A120164
:102A2000494D1A60002907D0606901F085FD431CFB
:102A30005800C0180338FDD2E02243490B681A4001
:102A400080235B012B431A60802380229B012B4350
:102A500012011A60802380225B004B602B4BD20254
:102A600023623B4B5968914200D25A608022394B15
:102A7000616A1201364D1A60002907D0606901F0C1
:102A80005BFD431C5800C0180338FDD2E0223049DA
:102A90000B681A4080235B012B431A60802380223D
:102AA0009B012B4312011A608023DB024B60184B01
:102AB0006362294B5A68FF2A02D8802252005A606A
:102AC0008022264BA1691201234D1A60002907D0EC
:102AD000606901F031FD431C5800C0180338FDD275
:102AE000E0221D490B681A4080235B012B431A60CA
:102AF000802380229B012B4312011A6080235B00FC
:102B00004B600E4BA361D9E668160020006CDC0216
:102B10001BB70000008000403CB0004030B00040D7
:102B2000002F685900800240008C864700C0024098
:102B300030800040001BB7003C80004040597307C4
:102B40005480004054B000406080004060B00040BD
:102B50006C8000406CB000404880004048B00040AD
:102B6000F8B50400214817001D000E0001F0E4FC38
:102B70000100380001F0E0FC069A2B041203134315
:102B80002268002A21DB1A4AA21851424A418021B8
:102B900049018C4652420A40164962440A6016496D
:102BA0000A60164917008D68AF43FBD1C021221D72
:102BB0008901114321222660A0600A602268002A50
:102BC000FCDAE36008230B60F8BD3F2221680A406D
:102BD000B242D8D1A2681205120D8242D3D1EE21A1
:102BE000E268C9020A409A42CDD1EDE7001BB70066
:102BF0000040FDBF00E0004000F0004000C0004089
:102C00008023024A9B000343D36270470080054043
:102C100010B5140080221B4BD2051A6000281AD070
:102C20000123194A1843194BDA61194A42401A62C2
:102C3000596298628022134BD2051A601549164AD0
:102C40001160E022D2041A60002C07D18022134BBD
:102C500012061A6010BD0D4BD861EBE780236201AC
:102C6000121B9200121912015B049A4200D30C4A03
:102C70000C4B1A60054B5A608022084BD2051A6033
:102C8000E8E7C04600B00540D3C007B0008005406B
:102C90002D3FF84FFCFF01000820014000A0054037
:102CA000FFFFFF001C1B0020AA23064A1B01136024
:102CB0002F230549D360054B19605368002BFCDABC
:102CC0007047C0460040024000B0FA000060024079
:102CD0002C4B2D4A70B51A602C4A2D4B2D491A6089
:102CE00010008B689843FBD12B4C2C4B9C4209D293
:102CF000013B1D1BAD080135AD002D1908CC9847CF
:102D0000AC42FBD1FFF7C4FD254A214B1A60214A92
:102D10009368DB018033FBD14022224B224C234DB0
:102D20009A675A671A67DA66AC4208D223682000AD
:102D3000002B21D00834FEF7ABFDAC42F6D31C4C7F
:102D40001C4DA168C022280002F0C8FCA560FEF757
:102D5000C1FAFEF761FDFEF763FF174C174B9C426B
:102D600009D2013B1D1BAD080135AD002D1908CC62
:102D70009847A542FBD170BD0834FEF77BFDAC42FD
:102D8000D4D3DCE700E00040BFCDFBFEFE7F3C007B
:102D900000F0004000C00040540F0020640F0020ED
:102DA000FFFFFF0100F001404C0F0020540F0020F6
:102DB00000ED00E000000020640F0020700F0020F4
:102DC00000BEFDE710B5FFF7FBFFC0460FB400B52E
:102DD000084883B002F096FD049B002B07D005A99C
:102DE0001800019101F032FB034802F08BFD012035
:102DF000FFF7E6FF987F0010A87F001010B501488C
:102E0000FFF7E4FFAC7F00107047C046F8B55746A7
:102E10004E46DE464546E0B51F000A9B05009B4630
:102E20000D9B0E00914692469B0718D10B9B0C9A66
:102E3000934214D213000B9AB8469B1A4B444C464B
:102E40000F0006001D0022004346013439002020F7
:102E5000B047AC42F7D1AA4635003E0047460B9B2F
:102E6000002B38D09A441C00D04653461A1B5B46B0
:102E7000013C185D31003B00A847002CF5D10D9BAB
:102E80009B0721D543464A469C1A0C9BA3421BD95B
:102E90003A009A464F469146E2194B4631002020AF
:102EA0000134A8475445F7D343460C99DB1B013343
:102EB000B9460022994203D343464A1E4A44D21AD5
:102EC000434690460133984440463CBC9046994660
:102ED000A246AB46F8BDD046D1E7C046F0B54F4656
:102EE0004646D646C0B584B098460EAB1B78129FB6
:102EF000994694460D9C109B119EBA0725D4002E2E
:102F000069D19C4200D3C2E001223A4092461F2C74
:102F100000D9BBE00C9A551E302201E0202C03D0D2
:102F200001342A55A342F9D85246002A0DD0B442A2
:102F30000BD21F2C62D80C9A551E302201E0202C97
:102F40005CD001342A55B442F9D1FA0635D57A0558
:102F50005DD4002C57D10F9B102B00D17CE00F9B30
:102F6000022B00D18DE030230C9A012413704B46C4
:102F7000002B27D02D230C9A135501340C9B62464D
:102F800000930397434602960194FFF73FFF04B076
:102F90001CBC90469946A246F0BDBB0663D4202CCB
:102FA000ECD00C9B1A19013478231370202CE5D037
:102FB00030220C9B1B191A700134202CDED04B469A
:102FC000002BD7D17B0735D43B07D7D520230C9ACC
:102FD00013550134D2E7012215003D40AA463A427A
:102FE00020D04A46002A2AD10C323A4227D19C42AC
:102FF0009DD21F2C00D88DE7202E19D92024FA0647
:10300000BCD57A0503D4A3421BD0A64219D00F9B8E
:10301000102BC2D0022BC9D1202CAFD00C9B1B1976
:10302000013440E09C4200D38FE71F2C00D871E7A9
:1030300020248AE72B230C9A135501349EE7013E86
:10304000D5E7631E012C00D185E70F9A102A20D006
:10305000022A25D01C00ABE7BB060DD478230C9ABE
:1030600001241370A4E7202C00D187E758220C9B81
:103070001B191A70013499E758230C9A0124137014
:1030800096E70C9A60330124137091E72024002600
:103090005BE7023CBA06E9D40C9A12191C0083E7DC
:1030A0000C9A9246534462221A707FE710B50028AA
:1030B00000D110BD02F0DAFBFBE7C0460B0010B5F3
:1030C000002802D049681B68984710BDF0B5DE465D
:1030D000574645464E46E0B59BB09B46249B0A901A
:1030E0009846259B0B910C924046424619009A4601
:1030F00001F0EBFC002800D0E8E0012240465146F8
:103100007F4B524201F0DCFC002800D0DEE00122BF
:10311000404651467B4B524201F0BCFC002800D097
:10312000D4E0002200234046514601F0B3FC0028C1
:1031300000D0CAE15346C14609938023289ADB0098
:103140001A400E92289A1A4201D1062326934C4621
:10315000099B234300D0D9E0289B002600271B05AC
:1031600000D4AEE100230D93269B19000D9B9942DC
:1031700000DCB0E1C81A431E26938023289ADB00A6
:103180001A430023002528920D93279B0024AB426D
:1031900000D95C1B0223289A1A400E92289A1342E7
:1031A00003D06B426B415B421C400D9B002B07D050
:1031B0004846099932003B0001F00BFC8146099119
:1031C000002200234046514601F064FC002805D04F
:1031D000802000068446099961440991289A4A4B47
:1031E0000A9E13404A460493269B0B990293099B1F
:1031F00003940092019330005B460C9A884600F0DD
:10320000A1F90400002D72D0289B220098061F23EC
:10321000C017984341465B466530B0470D9B671C1D
:10322000DA179C18DB0F98466B1E99460025544010
:1032300001E0202D13D00AAA94461F2320006344E6
:103240000A2101355E1901F077F930313170200023
:103250000A2101F071F926000400092EE9D805239E
:1032600006934B460593002304930A330393434686
:103270003A000A9E0B9F029312AB009339005B4603
:1032800030000195FFF72AFE0E9B0400002B2ED084
:103290000C9B279AC51AAA4229D93C008146984618
:1032A0001700434621005A1920205B460135B047DC
:1032B000AF42F6D84C460C992798631A0133002286
:1032C000984200D30AE10134141910E0289B4246C9
:1032D0000493279B0B990393269B0A9802935346CA
:1032E000009201935B460C9A00F02CF90400200038
:1032F0001BB03CBC90469946A246AB46F0BDC046CA
:10330000FFFFEF7FFFFFEFFFFFF7FFFF764B099D0A
:103310009C466800400D604401F0EAFB734A744B20
:1033200001F075FB734A744B01F04AFB2B03734A9F
:103330001B0B1A4306000F00714B11004846002278
:10334000099501F034FB6F4A6F4B01F060FB0200FE
:103350000B003000390001F033FB01F0E1FB0D9070
:1033600001F0C6FB694A6A4B04000D0001F04FFBF7
:103370000022684B01F024FB01F0D2FB664A0600F4
:10338000664B2000290001F042FB040030000D00D4
:103390000F9601F0ADFB624A624B01F038FB020070
:1033A0000B002000290001F002FB02000B000600C8
:1033B0000F0001F02CFB320004000D003B00300038
:1033C000390001F0FDFA002210901191564B2000B7
:1033D000290001F0FEFA0022544B01F0F1FA02003C
:1033E0000B002000290001F0F4FA0022504B01F0FC
:1033F000E7FA02000B002000290001F0EAFA0D00B4
:10340000802132003B000400C905002001F0CFFA02
:1034100002000B002000290001F0D2FA02000B008C
:103420001098119901F0D5FA0022344B01F0C8FA36
:10343000404A0F9B9446634400221B0501F0E7FAC3
:1034400006000F0002000B004846099901F022FB1C
:1034500000280AD00D9B3000013B39000D9300225B
:10346000324B01F0B6FA06000F00C6250D99330065
:1034700063318D42AD4128996D420435090500D470
:1034800083E63B4300D16FE6099C484621002A4A67
:103490002A4B01F00DFB002808D0002248462100ED
:1034A000274B01F0F7FA002800D05DE6269B002BA1
:1034B00000D16AE60E9B5A1E9341269AD31A269390
:1034C00063E6002304250D935FE680231B06534427
:1034D000C146099331E6002326934EE60A0084464E
:1034E000013A6244121BEEE601FCFFFFFB799F509C
:1034F0001344D33FB3C8608B288AC63F0000F03F17
:103500000000F83F61436F63A787D23F71A3790939
:103510004F930A400000E03F1655B5BBB16B024027
:10352000EF39FAFE422EE63F00002C400000244016
:1035300000001840FF0300002D431CEBE2361A3F49
:1035400080842E41F0B54E46DE4657464546E0B5EE
:1035500097B09946209E219F229B834698460791CB
:103560000C923B0032003000390001F0AEFA002826
:1035700000D0C1E1012230003900CA4B524201F0B3
:1035800089FA002800D0E0E0012230003900C64B63
:10359000524201F095FA002800D0B6E00022300037
:1035A0003900C24B01F08CFA002800D098E00022CC
:1035B00030003900BE4B01F06DFA002800D08FE0DA
:1035C000002200233000390001F064FA002800D006
:1035D000B0E000230D93249B5B0501D4062398469D
:1035E00008AB9C461722002430234146624404E085
:1035F000013413550139202C01D00929F8D8884607
:103600003000390001F08CFA4346DA00A94B05007E
:103610009B181A685B680892099301F069FA020026
:103620000B003000390001F0C2F9089A099B01F043
:10363000EEF90A900B9101F097FA824601F054FAE4
:1036400002000B000A980B9901F0B1F900229A4B85
:103650000A900B9101F034FA002800D1C0E0012358
:103660009C46E244504601F03FFA02000B000898E5
:10367000099901F015FA002802D000239A46013575
:103680004346002B69D008AB17269C460895664434
:10369000554614E001235B4243440A2128009A4620
:1036A00000F04AFF013430313719397028000A21FF
:1036B00000F042FF092D00D8D5E0D0460500202CAF
:1036C000E8D10323249A1340012B00D100E10EAB73
:1036D0009846249B01940393239B029343461EE048
:1036E000249B58460493239B0096019703934346DB
:1036F0000C9A029307994B46FFF7E8FC17B03CBCC5
:1037000090469946A246AB46F0BD249B5B070ED47B
:1037100003226A4B24990192039123990291009309
:1037200058464B460C9A0799FFF770FBE6E70422D0
:10373000634BEFE73B0032000020002101F037F936
:10374000012306000F000D9345E7249B0393239B61
:103750000293042301935B4BE1E7280001F0C8F9D1
:1037600002000B003000390001F021F9524B002219
:1037700006000F0001F08EF90EAB984600280AD122
:103780000022300039004C4B01F09AF9002802D198
:10379000EB0700D50135202C32D008AA9446172318
:1037A000280063440A2101341E1900F09DFE3031C7
:1037B000280031700A2100F097FE051EEBD103238B
:1037C000249A1340012B00D191E01F2C00D980E7EF
:1037D0000D9B002B3BD02D2342461355013478E737
:1037E00000220A980B99344B01F054F9002800D0BC
:1037F00046E75346002B67D101239C46E2443FE74E
:103800000323249A1340012B00D062E7239B002B53
:1038100000D15EE70D9B002B03D1249A0C33134299
:1038200002D0239B013B2393239B9C42CDD208AB28
:103830009C461722302362441F2C06D8239901345A
:1038400013558C42C1D0202CF8D1202441E7249B71
:103850005B0721D4249B1B0700D43AE72023424670
:103860001355013435E75746089D202C37D02200E8
:1038700030214046002F08D00132B154202A43D0D5
:10388000D3431B191B18002BF6D10EAB98462E23E1
:103890004146541C8B547EE72B234246135501347A
:1038A00017E7C046FFFFEFFFFFFFEF7F65CDCD417C
:1038B00065CDCDC1B08100100000E03FB87F0010A1
:1038C000BC7F0010C87F0010DB0700D4D8E693E768
:1038D000239B002B00D1FAE60EAB98469AE7032310
:1038E000249A1340012B00D0F1E60EAB9846239B9F
:1038F000002B00D169E78DE7249B0393239B029360
:1039000003230193064B0AE70323249A2024134040
:10391000012B00D0DBE6239B2024002BDCD1D6E654
:10392000C47F0010F0B5DE464E4657464546E0B52A
:103930009FB01C00289B93460993CF4ACF4B8946E2
:1039400008901A60002900D116E2002320789A46D8
:10395000002800D118E226001D004C460AE02A008B
:103960006F1C5B46089D2100A8473D00013630785A
:1039700000287AD02528F2D110239A46083B994690
:10398000043B9846023B00219C46721C10781600AE
:103990000300203BDBB2102B03D8B94F9B00FB5830
:1039A0009F460300303B092B3CD900230A932A2869
:1039B00000D171E0002398462E2847D00300683BD1
:1039C000DBB2122B1FD8AF4A9B00D3589F4601236E
:1039D00001321943DAE7634601321943D6E7434619
:1039E00001321943D2E7534601321943CEE74B4621
:1039F00001321943CAE770786C2800D1BFE28023F6
:103A00005B00194301360300253BDBB2532BA6D8DC
:103A10009D4A9B00D3589F4680235B0070781943D2
:103A20000136F0E700270300B800C0190136400056
:103A3000C018337830381A00303A0700092AF3D911
:103A40000A901800002398462E28B7D1802370785A
:103A5000DB0019430300303B721C092B00D895E1B1
:103A60002A2800D1A6E11600A8E7A146AA462C0004
:103A7000D34503D801235B425B449A465B465246DA
:103A800049460020089DA84720001FB03CBC904636
:103A90009946A246AB46F0BD099B40CB0A96002E44
:103AA00003DB50780993561C84E7283801437042A1
:103AB0000A9009935078561C7CE7782800D1D4E10D
:103AC000582800D168E26F2800D152E3622800D163
:103AD000D8E110230A009A430B92692801D000F024
:103AE000A2FC0A230C934B0500D4D5E101230B9AC9
:103AF0009A430B92692800D1CEE1642800D1CBE132
:103B00000B9A802311009B0019408A461A4200D06C
:103B100032E3802311005B00194089461A4201D02C
:103B200000F002FC13005B0600D510E30B9B1B06A4
:103B300001D400F06EFC099B04CB1204120C9246D7
:103B400009935346002B00D064E30B9A1033110005
:103B500099430B91520500D45CE3002399460B9BDB
:103B600006930A9B0593434604930C9B03930023FF
:103B7000DEE27078682800D107E28023013619431D
:103B800041E780239B007078194301363BE74628C4
:103B900000D174E10722099B0491073393430A9AE9
:103BA00019000392424602920CC9089800920193B0
:103BB00009912A005B462100FFF7C4FC013605008D
:103BC000D5E6099B1A0008CA9146002B00D105E1F1
:103BD000212211438A460EA884461F21614409957B
:103BE00000220F27A4460D0002E0202A0CD00B0073
:103BF0003C001C4020003730092C00D80738013227
:103C0000A85419090F2BF0D86446099DF0E08B07E2
:103C100000D4D1E1099B2A0099466B1C98464B467B
:103C200001CB21009946089F5B46C0B2B8470A9B6A
:103C30009C466544012B00D890E2B2465E4647465A
:103C4000A846089D3A003300013721002020A847EC
:103C50004745F7D1B3464B4656463D0009930136DA
:103C600085E62A006F1C5B46089D21002520A84799
:103C700001363D007BE6C04625390010141B0020AC
:103C8000D07F00101480001060800010099B04CBCE
:103C9000994643460992002B00D097E013789C4642
:103CA000002B00D1B3E302235B425A1C099B9246CE
:103CB00018000A9F0B92504402E0834200D169E150
:103CC0005A780133002AF8D1099A0A979B1A0B9364
:103CD00080230A00DB001A400C92194204D00B9B8F
:103CE000434501D943460B9302231A000A400D9223
:103CF0000B4200D184E16046002823D00C9B002BAE
:103D000000D124E1A844C246099B57465B1B984654
:103D1000089BB2462A0026005C469B4609E0230029
:103D20003100551CD8474346585D002800D13FE17B
:103D30002A009742F3D1A3463D00340056460D9B1E
:103D4000002B69D00B9B0A99A846994264D98C46EE
:103D50006544ED1A089B47469A46B04626005C46E5
:103D60003A002300013731002020D047AF42F7D17D
:103D7000A346340046464FE0D24B207808930023F8
:103D80009A46002800D0E6E5002471E64346060086
:103D90000A9F9800C018013240008019167803006D
:103DA00030003038303B0928F3D9300098461600EF
:103DB0000A9703E6099B023604CB9046D24340465D
:103DC000D2171040804609933078F7E513789C4667
:103DD000002B00D11AE34346013B66E7102208009E
:103DE00090431132104382460022490500D4F2E686
:103DF00053460693082305934346049310230393E5
:103E00000023029316AB019200932A005B46210027
:103E10000898FFF763F805004B4601360993A6E5BD
:103E2000202302009A43472A04D180231B0119430F
:103E300002239843452801D1202319430722099BD7
:103E40000491073393430A9A19000392424602925F
:103E50000CC908980092019309912A005B46210041
:103E6000FFF734F90136050081E510230C930C238C
:103E70000A009A430B924B0500D43BE636E620231A
:103E8000194387E602230C930B910B996428EED11A
:103E90000B9B5B0500D529E60B9A802311009B0044
:103EA00019408A461A4200D0CEE0802311005B0000
:103EB000194089461A4200D0DBE113005B0600D5A9
:103EC0001DE10B9B09991B0600D499E208C91BB29E
:103ED000D8171A18424092B209919246DA0F1292FC
:103EE000002B09D1802310220B99DB000B4091435A
:103EF0000B91002B00D012E10B9A6123920600D5A2
:103F000041230EA91F228C46DBB262440A3B57466E
:103F10001395A2464D460C9CB1460D9316000AE03F
:103F20003033DBB201357355A74200D21CE1202D9E
:103F300000D119E107002100380000F0FDFACBB2F2
:103F40000929EDD90D9A94466344DBB2EAE7099B4F
:103F50005F465B1B98460A9BB3469A462600089C20
:103F60002A003B003100A04743460135585D002838
:103F7000F6D1534634000A935E46BB46DFE6C023C3
:103F80009B00B078194302363DE5C023B078194351
:103F9000023638E50A979BE60C230A009A4314334D
:103FA0001A4310230B920C934B0500D4A8E59DE512
:103FB000A34634005646C2E60A9A012A00D82EE2E9
:103FC0006B1E9F18089BB046994626005C462A0047
:103FD0002300013531002020C847BD42F7D1A34658
:103FE00034004646099B3A0001CB210098467D1CCF
:103FF0005B46089FC0B2B847434601360993B6E412
:104000000B9A0A98531C904200D80AE243199B1A53
:104010001F00089BB24626005C469B462A002300F0
:10402000013531002020D847BD42F7D10A9BA34675
:1040300001330B93099B34001B7856469C4660461F
:10404000002800D05AE6E7E60722099B073393438E
:10405000013294469C4462465F6809921A68FB17D5
:104060001093119310981199030053400E930B0075
:104070007B400F9394460E9A0F9B121A8B410E921F
:104080000F93FB0F6246129300233A439A463DD0AA
:104090000B9A6123920600D541230022DBB20EA9C0
:1040A0000A3B8C4691460D9343461F32624413955A
:1040B00015964D460E9E0F9FA14690460C9C14935C
:1040C0000FE0C046092E00103032D2B2434601350F
:1040D0005A55BA4500D17CE1202D00D17CE1060083
:1040E0000F00220000233000390000F063FAD2B242
:1040F000092AE9D90D9B9C466244D2B2E6E7FF2328
:10410000099904C913401A000991E6E60B9A103385
:10411000110099430B915205BAD5002399460B9B88
:1041200006930A9B0593434604930C9B0393129BAF
:1041300002934B46019316AB2A00009321005B4685
:104140000898FEF7CBFE01360500FFF710FCFF22B2
:10415000099B02CB11408A460993F2E44B4645463F
:1041600009930136FFF703FC4E465446A946139DBA
:10417000D5E708230C9387E60722099B073393436F
:10418000013294469C44624609921A685B681000AA
:104190009A4613005246134307D10B9A103311006D
:1041A00099430B91520500D5D7E40B9A61239206EF
:1041B00000D541230022DBB20EA90A3B8C46914672
:1041C0000D9343461F32624457461295A2464D4610
:1041D0000400B14690460C9E13930DE03032D2B2EB
:1041E000434601355A550023BB4200D1FDE0202D46
:1041F00000D1FDE004000F00320000232000390050
:1042000000F0D8F9D2B2092AE8D90D9B9C46624445
:10421000D2B2E5E70B9A6123920600D54123DBB2C7
:104220000EA90A3B1F228C460D932300624454467C
:10423000129517004D469A46B1460C9E08E0303361
:10424000DBB201357B55B4420ED3202D0CD00400D7
:104250003100200000F070F9CBB20929EFD90D9A96
:1042600094466344DBB2ECE74E465446A946129DA1
:1042700075E4099B1A0008CAD91713925A184A40C4
:104280009146DA0F1292002B08D1802310220B994D
:10429000DB000B4091430B91002B2BD10B9A612338
:1042A000920600D541230EAA1F279446DBB20A3B93
:1042B0000D95674455460993A2464C46B1460C9E5F
:1042C00008E03033DBB201357B55B4420ED3202DEC
:1042D0000CD004003100200000F02EF9CBB20929E7
:1042E000EFD9099A94466344DBB2ECE74E46544654
:1042F000AA460D9D0B9B2A0006930A9B210005935D
:10430000434604930C9B08980393129B0136029337
:104310005346019316AB00935B46FEF7DFFD139BFC
:1043200005000993FFF723FB099B04CB91461293E9
:10433000002A08D1802310220B99DB000B40914307
:104340000B91002B2BD10B9A6123920600D54123B0
:104350000EAA1F279446DBB20A3B0D9567445546CB
:104360000993A2464C46B1460C9E08E03033DBB2BE
:1043700001357B55B4420ED3202D0CD00400310002
:10438000200000F0D9F8CBB20929EFD9099A944658
:104390006344DBB2ECE74E465446AA460D9D0B9BA8
:1043A0002A0006930A9B21000593434604930C9B25
:1043B00008980393002302935346019316AB00938E
:1043C0005B46FEF78BFD129B050009930136FFF754
:1043D000CEFAB44200D87FE6149B4C460E960F9757
:1043E000A9469846159E139D99E6A64200D8FEE67A
:1043F000139B4E469846A9465446129DFFF7AFFBC5
:1044000008C9D8171A184240099166E500230B9392
:104410005EE4099B04CB92460993FFF792FB2F00C1
:10442000E0E50B930BE6063B0C932EE500B585B05B
:104430000391012102900093034813004A4202A90C
:10444000FFF770FA05B000BDBD30001010B5094A85
:104450000300146884B0002C08D0012200910648A3
:10446000524203A9A047012004B010BD01F04AFA4E
:104470000020F9E7141B0020AD3000100148042192
:10448000014B1847F00E0020AD440010142310B566
:104490000100188804331B88984710BD162310B5F7
:1044A0000100188802331B88984710BDF0B5C64636
:1044B00000B5002916D014230400012598461827BA
:1044C000890046184346216818883B88984701C4EC
:1044D000431E984140420540A642F3D1280004BC47
:1044E0009046F0BD0125F9E7124A936F9B0815D25B
:1044F0009066D166002905D0FFE7FFE7FFE7516F1F
:10450000106F704704B580210906C217514000287A
:1045100000D0C84303F084FC002104BDF0B5146E44
:10452000556E576F166FFFF7E3FF146655665767B2
:104530001667F0BD000000D0114A936F9B0813D29C
:1045400010665166002905D0FFE7FFE7FFE7516FCE
:10455000106F704704B5002801D00020C04303F05D
:104560005FFC002104BDC046F0B5146E556E576F58
:10457000166FFFF7E5FF1466556657671667F0BDBF
:10458000000000D094464A4A926F9208624601D2D7
:1045900028E0C046F0B5464E346E756E776F366FC4
:1045A00000F020F89446424A14665566576716672D
:1045B0006246F0BD94463E4A926F9208624601D22E
:1045C00054E0C046F0B53A4E346E756E776F366F74
:1045D00000F04CF89446364A1466556657671667DD
:1045E0006246F0BD002B24DB11D000293EDA00B575
:1045F000C943404200D1013100F038F8C94340427C
:1046000000D10131DB43524200D1013300BD002A09
:10461000EBD1002801D1002905D00020C90FC9071E
:1046200001D1C043410800B503F0F2FB0022002392
:1046300000BD00B500290ADBDB43524200D1013343
:1046400000F014F8C943404200D1013100BDC94314
:10465000404200D10131DB43524200D1013300F02E
:1046600005F8DB43524200D1013300BD002923D1BC
:10467000002B18D1002A0CD0BC460D4F38667A6644
:1046800000210023FFE7FFE7FFE77A6F386F6746F7
:104690007047002801D00748010000B503F0B8FBBF
:1046A0000022002300BD02000B0000200021704703
:1046B000000000D0FFFFFFFF002B00D0BFE0130C75
:1046C00028D1002AE7D080B4114F39667A66FFE717
:1046D000FFE730B4040C7B6F396F1B0423433B6648
:1046E0007A66FFE7FFE7FFE7C04684B27B6F3D6F66
:1046F0001B0423433B667A66FFE7FFE7C0460023BF
:104700002C042D0C7A6F386F00196941B0BC7047CA
:10471000000000D0F0B594460025140E01D112021D
:104720000835140F01D112010435940F01D1920004
:104730000235D40F01D152000135D40B0134254F7D
:104740007C66254C3C660E0C93B2FFE7FFE7FFE763
:104750003C6F6643360C7703BE467343DF0B5B0446
:10476000C01AB941130C7343DB18C91ACE0866434B
:10477000360CB64493B273431F0F1B01C01AB941E4
:10478000130C73431F0B1B05C01AB941860D8F0212
:104790003E436643360C092D24DB520A7243801ACD
:1047A0007703460A6643360C16235B1BDE40DF4068
:1047B000BF1964466643821B704604350633010008
:1047C000D940A840C01900D30131A24206D200232B
:1047D000F0BD0000000000D0FFFFFFFF121B013002
:1047E000F3D3F1E709277F1BFE406446A2B2724370
:1047F000801A00D20139220C7243130C1204821A5F
:1048000099410B007046043513370100F940A84068
:10481000801900D30131002B02D1A2420AD2F0BD8F
:10482000013000D30131121BFAD2013BF8D1A24270
:1048300000D2F0BD013000D30131121BF7E7F0B513
:104840001C0C00D080E00CB400251C0A04D11B0213
:10485000160E3343120208351C0B04D11B01160F30
:104860003343120104359C0B04D19B00960F334354
:1048700092000235DC0B02D192185B4101351C001D
:10488000971864410134464F7C66464C3C660E0CDA
:10489000FFE7FFE7FFE7C0463C6F6643360C770350
:1048A000BE4697B27743C01B00D20139C01B00D26D
:1048B00001399FB27743C91BC91B170C77437E048C
:1048C000FF0B801BB941CE086643360C0C2D33DB41
:1048D000B644120B1F053A431B0B97B27743C01B1C
:1048E00000D201399FB27743C91B170C77433E04AE
:1048F0003F0C801BB941860D8F023E43664329273A
:104900007F1BFE400C3D7746AF40BF1930BCA2B2C2
:10491000ABB272437343801A9941220C7243130C59
:104920001204801A994102000B000137001BA941B3
:10493000F9D2781E0021F0BD0C277F1BFE40774680
:104940007F0BAF40FF19E0E700245D1C07D0144F38
:104950007D663966FFE7FFE7FFE7FFE73C6F95B24B
:104960009EB265436643401BB141150C1E0C654366
:10497000664336042F0C3E432D04401BB14199423F
:1049800004D202000B0020000021F0BD01D19042B2
:10499000F7D3801A994101349942F2D3F6E7000027
:1049A000000000D0FFFFFFFF48404140484018B4DE
:1049B0001B4B5B68FC46019308BD04DFA34C001051
:1049C00018B4174B1B68FC46019308BD00DFAD4CC3
:1049D00000109446134A926F920809D2624618B4A6
:1049E0000F4BDB68FC46019308BD0CDF654F0010E0
:1049F0000C4AF0B5146E556E576F166F6246FFF78E
:104A0000EEFF084A1466556657671667F0BD18B47E
:104A1000034B9B68FC46019308BD08DF094E00105C
:104A2000881B0020000000D0FFB55040424050409D
:104A300059404B40594000E0FFB5154F4C00640D04
:104A400003D0BC4204D10C0314D80020090D090581
:104A50005C00640D03D0BC4204D11C030AD80022C0
:104A60001B0D1B0501264B4009D44B4003D58B423F
:104A700000D18242FFBD9942FCD19042FFBD0B4361
:104A8000DB1803431343F5D0C9434918FFBD0000A9
:104A9000FF07000000B5FFF7CFFF804100BDC04613
:104AA00000B5FFF7C9FF01D9002000BD012000BDFE
:104AB00000B5FFF7B9FF01D9002000BD012000BDFE
:104AC00000B5FFF7B1FF804100BD012040054A005D
:104AD000121804D85A00121801D80020704701207B
:104AE00070470020704700000021002805D1704762
:104AF000C1174840401AFAD0C90713B5064B1B68C6
:104B000098470CBC441CA2401005120B0349091B1A
:104B100009051943114310BD4C1B00201F04000060
:104B200010B54C00620D8023D218DB00D21A5B0551
:104B30007E2A10DD9E3A13DACC170903490819437F
:104B40005242D140640001341532202A05DAD040A7
:104B50000843604310BD002010BD0846604310BDEF
:104B6000C80FC018013810BD18B4044B5B6AFC466E
:104B7000019308BD24DF155100100000881B0020A0
:104B800018B4044BDB6DFC46019308BD5CDF095291
:104B900000100000881B002018B4044BDB6FFC469B
:104BA000019308BD7CDF955100100000881B002098
:104BB000132370B51D78012D15D010DD2748FFF7A0
:104BC0006DFC274C01008022200000F087FD022DA3
:104BD00006D02448FFF75AFC234B186070BD204CC8
:104BE000224AA264F5E72E001D4C204AA3085B422E
:104BF0001E401D422FD0330022602020B1006118DA
:104C0000801B0A604A608A60CA600A614A618A61E0
:104C1000CA610A624A628A62CA620A634A638A6332
:104C2000CA630A644A648A64CA640A654A658A6512
:104C3000CA650A664A668A66CA660A674A6740089B
:104C4000102803D18A67CA67A264C2E71E339B009B
:104C5000E250A264BDE70023CFE7C0465344000002
:104C6000881B00204C3300004C1B0020714C0010AE
:104C700007B5604601880A0A0230DF2AFAD1C9B2B4
:104C8000820804D3028840880004104300E00068D2
:104C9000014A5050039007BD881B00200FB403BC8D
:104CA0000CBCF0B50124E407634000E0F0B50C0D46
:104CB000CF0F661E3605891B640503D3C9434042E6
:104CC00000D30131640D03D0661CF60A07D0E41B43
:104CD00000207F00791C89078912803C24031D0D68
:104CE000DF0F6E1E36059B1B6D0503D3DB4352425F
:104CF00000D301336D0D03D06E1CF60A07D0ED1BF7
:104D000000227F007B1C9B079B12803D2D032F1BE5
:104D1000661B58D4A446202E46DA20371400BC4027
:104D20001D00BD40F24033412A4380185941CB0F4A
:104D300005D0C943C04300226442504151416246FC
:104D40004D0D28D10D0D07D100281FD02419404149
:104D50004941013A0D0DF9D0640006D3013000D36A
:104D60000131002C01D140084000013A0BD4941CC1
:104D7000E40A04D112051144DB071944F0BDD90738
:104D8000204B194300E0D9070020F0BD0029DDD1F8
:104D9000002CDBD1F0BD0132C6074008CD07284307
:104DA0004908002EE1D0D9E73C2E29DA203E4037D1
:104DB0001400BC4000D00124F24014431A00BB4050
:104DC0001C43D317ACE7AC46202F08DA203604008A
:104DD000B4400D00B540F84039412843A5E73C2FC9
:104DE0000CDA203F40360400B44000D00124F840E3
:104DF00004430800B1400C43C117EAE71000190052
:104E0000002494E70000F07FF0B50C0D661E360517
:104E1000891BE60A6405640D02D0651CED0A04D006
:104E2000002001210905803C2403A4461C0D671EB7
:104E30003F05DB1BE70A6405640D02D0651CED0A23
:104E400004D0002201231B05803C240377406444E6
:104E500097B484B296B27443070C7E43150C6F432B
:104E600080B26843361802D3012000043F18300492
:104E7000350C00197D41844688B29AB250430C0C1F
:104E800062431F0C7C438EB27E43921902D30126EB
:104E90003604A4191604170C3618674101BC81B2F8
:104EA0009AB25143040C62431B0C5C4380B25843DA
:104EB000121802D30120000424181004130C401807
:104EC00063412D185E410020474106BC88B293B271
:104ED00058430C0C6343120C544389B251435B1882
:104EE00002D301210904641819041A0C091862413B
:104EF0006D1856410020474118BCF902720D11434C
:104F0000F0026A0D1043ED020A0D03D16D19404104
:104F10004941013B124E9B1B7600B3420ED26D00FD
:104F200007D30130002671416646354301D1400860
:104F300040001B05C918E4072144F0BD0BDA01331A
:104F400006D1013004D101314F0D01D04908F2E7FB
:104F5000E1070020F0BD013631050020EBE700003D
:104F6000FF030000F0B51C0D671E3F05DB1BE70AC1
:104F70006405640D02D0661CF60A04D000220123E9
:104F80001B05803C2403D0252D060026F6432E6603
:104F90001E096E66CE0FF619B44649004F0D02D0B9
:104FA0007E1CF60A03D000200021403F3F033E1B39
:104FB000B600B444013F7F05C91B49082E6F013676
:104FC00076089C02950D25437543ED137543AD138B
:104FD00001356D10F603761B0CB4CC02450D2C4345
:104FE000A2B2B3B25A43270C7B43350C6F43A4B231
:104FF0006C431B1902D3012424043F191C041D0C0B
:10500000A4187D4124196D41009A91B2ACB261435C
:10501000170C7C432B0C5F4392B25A43A41802D363
:1050200001221204BF182204230C52187B41019C58
:105030006C431B19520ED9010A434401A01A81B2D4
:10504000B2B2514303145A43360C734387B27743C9
:10505000D617D21900277E4136049B191704160C67
:105060007F185E417316ED18F301002680337541F9
:10507000A90F06D16400690AE8055B0A184309D242
:105080002FE00422944480337541A90AA8059B0AA5
:10509000184326D3404149412404009A019B0D0046
:1050A0005543641B4343E41A95B286B27543170C0B
:1050B0007E43030C5F4392B25A43B61802D30122D7
:1050C0001204BF183204330C52197B4152429C41E6
:1050D000002C02D40022013051414008CA0710437D
:1050E000490802B06246D7079210084BD218084B05
:1050F0009A4203D212058918C919F0BD0020002A6E
:1051000001DC3900F0BD01331905F5E7FD030000AE
:10511000FE070000002200B5203200F004F808006D
:1051200000BD000000220B150AD410B5944600F013
:10513000A7F81414013400DA0021CB17144C2047CF
:105140000020002170476244343A0CD40C2A07DA5C
:1051500004009140904052422032D440214310BD7F
:10516000D843D94310BD203207D40C469440524254
:1051700020321141D040204310BD0800C917203211
:1051800003D452422032104110BD1800190010BD46
:10519000475100104A00520D144BD21A13DDFF2A5A
:1051A0001EDAD205CB0FDB071A43C300400F0903F9
:1051B000490A084310435B0001D301D00130704716
:1051C0004308FBD2704702D0C80FC00770470A03DC
:1051D00012130132F8D1420F072AF5D1012200E063
:1051E000FF22C80F00028018C0057047800300002E
:1051F00000210A00002104E000210A00C11704E098
:105200000022002306E0C0460022CB175840594038
:10521000C01A994130B5184CA21A002903D10100D7
:1052200010D00020203A4C1512D104D2013A0018B7
:1052300049414C0DFAD3114CA24204D212058918EF
:10524000DB07C91830BDD243520D00200021F5E71D
:1052500003D4013A00184941FBD50B324405C00A7A
:105260004D052843C90A640003D000246041614110
:10527000E1E7E0D34408F8E732040000FE0700004D
:105280000A0DCC0F531E1B05C91A520503D3C9437F
:10529000404200D30131520D03D0531CDB0A07D02A
:1052A000121B00206400611C89078912803A1203D6
:1052B000014BD21A70470000FF03000051434343E3
:1052C000C9188C46110C83B24B4310B4040C6143D3
:1052D00092B280B2504362431C041B0C001910BCF4
:1052E00059411304120CC018514161447047000029
:1052F0004840414048400E4B5B6818470C4B1B68C8
:1053000018470C4A936F9B0802D2094BDB68184779
:10531000F0B5146E556E576F166FFFF7F6FF054A1E
:105320001466556657671667F0BD014B9B681847B2
:10533000881C0020000000D007B54840414048408C
:1053400001E0C04607B54200120E03D0FF2A03D188
:10535000420218D8C00DC0054A00120E03D0FF2A21
:1053600003D14A020FD8C90DC9050122414005D415
:10537000414001D5814207BD884207BD014349181C
:1053800001D0C043001807BD00B5FFF7DBFF804127
:1053900000BDC04600B5FFF7D5FF01D9002000BD14
:1053A000012000BD00B5FFF7C7FF01D9002000BDF7
:1053B000012000BD00B5FFF7BFFF804100BD4100E7
:1053C0000A0E80231B067E2A0BDD9E3A0BDAC117DC
:1053D0004002400818435242D0404900013148433E
:1053E000704700207047C00FC01801387047C04296
:1053F0000CD300B540004008002100F011F800284F
:1054000001D4404200BD8020000600BD034BDB6993
:10541000FC4618471CDF795600100000881C00204D
:10542000014B5B6A18470000881C0020014B1B6B76
:1054300018470000881C0020034BDB6FFC46184710
:105440007CDF915600100000881C00204100090EEE
:10545000862902DA044BDB6B1847044900B500F0DB
:10546000EFF802BC8E46F5E7881C0020DB0FC94030
:105470004100090E862902DA044B1B6C18470449C7
:1054800000B500F0DDF802BC8E46F5E7881C002070
:10549000DB0FC940132310B512481C78FEF7FEFF3E
:1054A0000100012C0AD003DD80220F4800F016F91C
:1054B0000E48FEF7EBFF0E4B186010BD0A4C54224D
:1054C000200000F00BF90B4B6365A365E3652366D1
:1054D0006366A366E36623676367A367E367236284
:1054E000E361E5E753460000881C00204C330000D0
:1054F0004C1B00204D560010F8B557464E46454609
:10550000DE46E0B5FF268846C40DC90D34401700BD
:105510000E40002A01D000231360FF2C5FD0002E24
:105520005DD0002C5ED0FF2E53D0731EA34250DC02
:10553000C20F944680221204914645026D0A15431B
:10554000424649465202520A11438946A34251D06B
:105550006346002B58D000216D42A41B002C5CDD5B
:105560004B460120D9114042FEF7E6FF1D2383463A
:1055700000219C4622000C2C00DD0C2258466B12A8
:10558000954043436046AA46801A03414D46504623
:10559000914001335B105D435918451BA41A002C40
:1055A000E8DCA94537DC4B46ED1AA94546DCED1A87
:1055B00002316B004B4519DC16D04346002B00DA54
:1055C0004942002F00D0396096212800891BFFF73F
:1055D0002DFF3CBC90469946A246AB46F8BDFF2045
:1055E000C005F6E70020F4E7CB07E6D54B460131CE
:1055F000ED1AE2E78D42ECDD6346002B13D14B0040
:1056000026000121ED1AD8E7A41B002CA8DC8D424E
:1056100011DA0021CDE7002DCBDA4B46ED1808D585
:105620004D440239C5E74B00012126005D1B49426C
:10563000C3E70139BDE74B460021ED1A0131B8E758
:1056400010B50022FFF758FF10BDC04607B56046F1
:1056500001880A0A0230DF2AFAD1C9B2820804D3CB
:10566000028840880004104300E00068014A50505E
:10567000039007BD881C00200021C21580328032B3
:1056800001D0024A1047002070470000CD2A0000D8
:10569000C30FDB0741000A0E07D0FF2A08D0090913
:1056A000054A8918194340077047190000207047C0
:1056B0000249C918FAE70000000000380000F07F36
:1056C00001480421014B1847000F0020AD44001091
:1056D000014B1B6818470000000F0020014B5B685E
:1056E00018470000000F0020030010B508001B68D9
:1056F0001100984710BDC046F0B5C6460C000968B9
:10570000060000B5802906D04B1C23606418267162
:1057100004BC9046F0BD0E4B1D68002D14D0231D17
:1057200098460C4F02E02D69002D0DD02A68002A02
:10573000F9D03B68002B01D0AB42F4D14046216840
:1057400090472D69002DF1D101230021DDE7C046EE
:10575000F816002010170020030010B508001B6881
:105760001100984710BDC046F0B5DE4657464E467C
:105770004546E0B585B017001C0006000D00FCF79B
:10578000A3FD0023324A12184B41002B5BDB314949
:1057900008008A4602F06CFB01906B1C03D13000BC
:1057A00002F0EEFA0500002C28D12B4B98462B4B2B
:1057B0001C68002C15D0002F23D1294F02E024694A
:1057C000002C0ED02368002BF9D03B68002B01D0B1
:1057D000A342F4D120002A003100C0472469002CE4
:1057E000F0D1019B002B2AD1681E8541E8B205B09B
:1057F0003CBC90469946A246AB46F0BD194B984634
:10580000D5E7174B994602ABDF1D0A239B4602E002
:105810002469002CE5D02368002BF9D04B461B6887
:10582000002B01D0A342F3D12A0031002000C04751
:105830005B460122390020003B70C047E8E7504634
:1058400002F0DEFAD0E70122074B52429FE7C04642
:1058500040420F004C0F002059570010F81600204E
:1058600010170020E9560010FFFFFF7FF0B5CE466D
:10587000474680B583B06B460500DE1D3070FCF7EF
:1058800023FD00231A4A12184B41002B2CDB194927
:105890000800884602F0ECFA174B07001C68002C41
:1058A00016D0164B994602E02469002C10D02368CC
:1058B000002BF9D04B461B68002B01D0A342F3D13B
:1058C000200001223100FFF747FF2469002CEED1B0
:1058D000002F05D1280003B00CBC90469946F0BDBE
:1058E000404602F08DFAF5E70122054B5242CEE721
:1058F00040420F004C0F0020F81600201017002027
:10590000FFFFFF7F70B5040002F03AFA00230100A8
:10591000050001222000FFF727FF084B1C68002C20
:1059200006D06368002B05D098472469002CF8D175
:10593000280070BD2469002CF3D1F9E7F816002087
:105940000A4A1368002B05D10CE01A001B691032BB
:10595000002B07D09842F8D1002902D103691360C7
:10596000016170470029FCD01060FAE7F8160020AA
:10597000F0B5CE46474680B5A5B004000D00FCF753
:10598000A3FC0023294A12184B41002B47DB284F68
:10599000380002F06DFA00230600039322002B006A
:1059A000244803A9FEF742FD039B8046002B14D137
:1059B000214B1C68002C06D06368002B0BD0984745
:1059C0002469002CF8D1002E25D1404625B00CBC0E
:1059D00090469946F0BD2469ECE7174B1D6899463F
:1059E000002D20D0154C02E02D69002D0FD02B6822
:1059F000002BF9D02268002A01D0AA42F4D1039AE0
:105A000004A81100019298472D69002DEFD14B4653
:105A100003951C68CEE7380002F0F2F9D5E70122C1
:105A2000074B5242B3E70395CDE7C04640420F0013
:105A30004C0F0020F9560010F81600201017002017
:105A4000FFFFFF7F0FB400B583B004A901C9019126
:105A5000FFF78EFF03B008BC04B0184710B500F084
:105A6000D9F910BD7047C0460022014B1A7070472B
:105A7000821B00204B790020FF2B0BD18B79002B50
:105A800008D1CB79012B05D1082A03D98A78024B9A
:105A900009301A707047C046821B002001207047F1
:105AA00070B5012909D115495379107909781B027C
:105AB00003430020994202D070BD0120FCE75378D7
:105AC000012B08D0022BF7D1002064220021FDF722
:105AD0009FF80120F0E79478D27805001202144371
