:020000041000EA
:1000000000B5324B212058609868022188439860DF
:10001000D860186158612E4B002199600221596106
:100020000121F02299502B49196001219960352056
:1000300000F044F80222904214D00621196600F024
:1000400034F8196E01211966002018661A6600F04E
:100050002CF8196E196E196E052000F02FF8012189
:100060000842F9D1002199601B49196000215960AB
:100070001A491B48016001219960EB211966A021F2
:10008000196600F012F800219960164914480160C1
:100090000121996001BC002800D000471248134993
:1000A000086003C880F30888084703B5996A0420EC
:1000B0000142FBD001200142F8D103BD02B5186610
:1000C0001866FFF7F2FF186E186E02BD00000240BE
:1000D000000000180000070000035F00212200005C
:1000E000F4000018222000A00001001008ED00E03C
:1000F00000000000000000000000000074B24E7A12
:1001000000200420F7010010C3010010C5010010F9
:10011000C1010010C1010010C1010010C101001097
:10012000C1010010C1010010C1010010C701001081
:10013000C1010010C1010010C9010010CB01001065
:10014000CD010010CD010010CD010010CD01001037
:10015000CD010010CD010010CD010010CD01001027
:10016000CD010010CD010010CD010010CD01001017
:10017000CD010010CD010010CD010010CD01001007
:10018000CD010010CD010010CD010010CD010010F7
:10019000CD010010CD010010CD010010CD010010E7
:1001A000CD010010CD010010CD010010CD010010D7
:1001B000CD010010CD010010CD010010CD010010C7
:1001C00000BE00BE00BE00BE00BE00BEEFF3058054
:1001D000103800BEF2EB8871D8660010FC66001083
:1001E0003402001090A31AE700201F49086006C8D7
:1001F00081F3088810471D48006800282FD10DA4FE
:100200000ECC002902D000F012F8F9E71849194A7B
:10021000002000E001C19142FCD1174988471749ED
:1002200088471749884700BEFDE701C901C29A42C5
:10023000FBD37047FC660010C0000020800F002038
:10024000BC7500100000042000000420BC750010E4
:10025000001004200010042000000000704709482E
:1002600002F0AAFE0047000008ED00E0000000D008
:10027000800F0020901E0020312E001089070010F2
:10028000252F00105756000006005250ABB36053A4
:100290009064001006005250861C0302A0640010F7
:1002A000060052505422A29DAC640010050052502A
:1002B000DE65F468BC750010F8B5C0460448054B0F
:1002C00010B5834203D0044B002B00D0984710BDDB
:1002D000800F0020800F0020000000000648074922
:1002E000091A8B10C90FC91810B5491003D0044B57
:1002F000002B00D0984710BD800F0020800F0020F9
:100300000000000010B5074C2378002B09D1FFF73F
:10031000D5FF054B002B02D0044800E000BF0123AD
:10032000237010BDE811002000000000F8630010E9
:10033000054B10B5002B03D00449054800E000BF71
:10034000FFF7CCFF10BDC04600000000EC110020FC
:10035000F8630010D022032112065368526870B56A
:10036000194C9B0C120B0B400A4021685940032981
:1003700010D0216899420DD02068590841400120D1
:1003800005000D40084201D101256D420F4801686A
:10039000491B01600E4908685040032810D00868C6
:1003A00090420DD00D685008684001252E0006408F
:1003B000054201D101267642064D28688019286041
:1003C00023600A6070BDC046481700204C1700200B
:1003D00050170020541700200A4B10B51A680A4C19
:1003E0000A4B2000196800F02DFD094B2000196808
:1003F000084B1A6800F0FAFB0122074B01201A7023
:1004000010BDC0469815002098100020601B0020E9
:100410004C17002054170020CE1B002070B503F0AD
:1004200073FD192000F044FFD024802324069B0490
:100430006362122000F03CFF8023DB02A3620022F3
:100440000121122000F0C4FE132000F031FF8023B0
:100450001B03A36200220121132000F0B9FE0D202E
:1004600000F026FF80239B01A362002201210D20C2
:1004700000F0AEFE0C2000F01BFF80235B01A362A6
:10048000002201210C2000F0A3FE154D01222B00BB
:100490000C21122000F0B4FE2B0001220C211320AD
:1004A00000F0AEFE2B0001220C210D2000F0A8FE72
:1004B0002B0001220C210C2000F0A2FE0322636815
:1004C00008499B0C13400B6063681B0B1A40064BDA
:1004D0001A6001F07FFF054B1860596070BDC0467F
:1004E000550300104817002050170020800F0020EF
:1004F000F0B503008BB04B4801AA108068461C6918
:100500005B69C480240C04810A246C4423801B0C86
:1005100063800E240B686C4423801B0C63801224C0
:100520004B686C4423801B0C638016248B686C44DE
:1005300023801B0C63801A24CB686C4423801B0C23
:1005400063801E2422260B696C4423801B0C06301A
:10055000638035491400354D6E4427E01FB299B2CF
:10056000002F2FDB4B0099B21BB24900002B30DB70
:100570000FB28BB2002F31DB59008BB209B20029C8
:1005800032DB59008BB209B2002933DB59008BB240
:1005900009B2002934DB59008BB209B25B00002993
:1005A00000DA6B40013099B2B0422ED003781B02C2
:1005B0004B4019B25B000029D0DA6B401FB299B2F0
:1005C000002FCFDA490069400BB289B24900002BF5
:1005D000CEDA69400FB28BB2002FCDDA5B006B40F0
:1005E00019B29BB20029CCDA5B006B4019B29BB206
:1005F0000029CBDA5B006B4019B29BB20029CADA42
:100600005B006B4019B29BB2C8E7094BD1831384DE
:10061000223215002078013403F012FCA542F9D1F2
:100620000BB0F0BD34120000FFFF000021100000ED
:1006300078560000F0B5C64600B584B0070001F05A
:10064000C9FE4B4B04000D000026984604E06B46A3
:10065000985501360E2E12D0464803F059FC431C23
:10066000F5D101F0B7FE001BA941002902DCF1D150
:100670004045EFD9002004B004BC9046F0BD0E22E6
:100680006946380003F0DAFA7B7839783A4A1B0277
:100690000B439342EED17B7B397B384A1B020B43E1
:1006A0009342E7D13C00364A3648B91C0A3427E069
:1006B0001DB29AB2002D2FDB53009AB21BB252002A
:1006C000002B30DB15B293B2002D31DB5A0093B210
:1006D00012B2002A32DB5A0093B212B2002A33DB84
:1006E0005A0093B212B2002A34DB5A0093B212B20B
:1006F0005B00002A00DA434001319AB28C422ED0CE
:100700000B781B0253401AB25B00002AD0DA434038
:100710001DB29AB2002DCFDA5200424013B292B20B
:100720005200002BCEDA424015B293B2002DCDDA42
:100730005B0043401AB29BB2002ACCDA5B00434014
:100740001AB29BB2002ACBDA5B0043401AB29BB2CA
:10075000002ACADA5B0043401AB29BB2C8E7F87AB3
:10076000BB7A00021843801A42425041C0B282E76D
:1007700020A1070010270000341200007856000066
:10078000FFFF000021100000F0B5CE46474680B5BF
:100790009FB0FFF743FE01F0FFFA0EAB0293002378
:1007A0000193214B214A0093002301F0C1FB002853
:1007B0002CD01F4BD02799461E4B802698461E4DA5
:1007C00005AC3F06B6042000FFF734FF0028FAD03E
:1007D0007E61A1886388090419434B461960228908
:1007E000E38812041A43434628001A6000F02AFBEB
:1007F000290014A800F098FB290009A800F0A2FB2A
:1008000009A914A8FFF774FEBE61DCE7D025802497
:100810002D06A40432206C6101F0EEFC0748AC61A7
:1008200001F0EAFCF6E7C046D9030010204E0000B4
:10083000601B00209815002098100020DC050000A7
:1008400070B590B005AC20000E490F4B70C970C058
:1008500070C970C070C970C009680C4A0160192164
:100860000491053903910A490293019200910948C4
:10087000094900F03FF901F0ADFD084B18605960DF
:1008800010B070BD580E002017B7D1383480B73A79
:10089000CDCCCC3D98100020643BDF3D9010002073
:1008A00070B5040001252372049B10006362059B50
:1008B000E160A36213075B0F63612B0013402261A9
:1008C000A361042100F06CFC6A2162698026930018
:1008D0009B18174A9B009A185160164976011161BE
:1008E000154AE0689446A2696344511E8A4113493F
:1008F00052420A4012498C461968624433430A4006
:100900001A6000F0D5FC2A00E36820009A40D0234A
:100910001B065A625A61626993009B18044A9B0045
:10092000944663441A68334395431D6070BDC046C6
:1009300000000540E70300000C0005400100FEFF39
:10094000FFFF000070B5866A0500301C0C1C02F029
:10095000D1FF002800D0341C6E6A211C301C02F02C
:10096000D1FF002800D0341C2949201C02F08DFF43
:1009700002F0D5FF02B2030423D42B7A002B39D026
:100980000123E9688B40D02109068B6169698B00DE
:100990005B1820499B005C18A969002927D11E49D2
:1009A00020684240114080225201224311601B4ABC
:1009B000991801220B689A4380235B010B431A604C
:1009C00070BD2B7A002B1CD1E96801338B40D021FC
:1009D00009068B6169698B005B180E499B005C18E6
:1009E000D11752184A40A96992B20029D7D00C49B0
:1009F0001204D5E7E96801338B40D02109064B6129
:100A0000C4E70123E9688B40D02109064B61E1E787
:100A100000007A440C000540FFFF00000000054084
:100A20000000FFFF83600023C3600361009B4361FC
:100A3000019B01608361029B4260C3617047C046B5
:100A4000F0B5C6460400984600B5081C111C02F01B
:100A500002FF4146051C02F018FF216902F0FEFE6C
:100A600066692061311C071C02F054FF002809D17F
:100A700080231B069C466644311C381C02F034FF60
:100A8000002834D02661E168281C02F0E4FE4146CB
:100A900002F0E7FE2168071CE560281C02F0F5FE65
:100AA0006168051C301C02F0F0FE011C281C02F0DD
:100AB000D5FEA168051C381C02F0E7FE011C281CAD
:100AC00002F0CCFEE669051C011C301C02F00CFF94
:100AD000002806D1A669291C301C02F01BFF002843
:100AE00003D0301C04BC9046F0BD2E1CF9E73E1C20
:100AF000C9E7C046F0B5DE464E4657464546E0B526
:100B000085B0836099460E9B0025C3600F9B4260B1
:100B10000361109B90464361119B179AC361FA23AE
:100B20005B008364953BFF3B9B4613AE016005620F
:100B300045628562C562056345638565C565337A2F
:100B40000192169A834404000F1C00921399149A80
:100B50005846FFF7A5FE8C239A46706A337FB26928
:100B600071690190306AA24400905046FFF798FEE8
:100B7000FC26BF232000B6051B06424602960193C1
:100B800000964B46391CB830FFF74CFFBF232000BE
:100B90000296009688261B060F9A0E990193E43060
:100BA000109BFFF73FFF129B7600A3515846291C6C
:100BB000FFF7C8FE291C5046FFF7C4FEA059A562E6
:100BC000656300F075FB0123A2599340D022120601
:100BD000536201F0FFFB20656165200005B03CBC5D
:100BE00090469946A246AB46F0BDC046F0B5DE46FB
:100BF00057464E464546E0B587B006001700884682
:100C000001F0E8FB326C736C04000D00801A99410E
:100C100002F0C4FA0022814B02F037FA02F0CAFA5D
:100C2000346475648246404602F0A0FA7C4A7D4BEB
:100C300002F049FA00227C4B02F027FA02F0BAFADD
:100C40008E235B00F050380002F090FA744A754B26
:100C500002F039FA0022744B02F017FA02F0AAFAF5
:100C600090235B00F0500C3BF1584346581A049314
:100C7000009102F07BFA6D4A6D4B0090019102F0F9
:100C800022FA0022684B02F000FA02F093FA8C215B
:100C90003C0049007758051CE01B0297059402F0C0
:100CA00065FA624A624B0290039102F00CFA5E4BC5
:100CB000002202F0EAF902F07DFA041C011C281C53
:100CC00002F0CCFDFC21890502F0DFFDA2214900E4
:100CD00089467158071C081C884602F067FE9E2250
:100CE00052009346011C381C02F0CFFD5A46011CED
:100CF000B05802F0B3FD59467050404602F068FE0D
:100D0000A02252009346011C381C02F0BEFD5F4633
:100D1000011CF05902F0A2FD291CF051201C02F028
:100D20009AFD444902F09DFD414602F097FD4D4673
:100D30009A237051B56A5B00F550A9469C25776BE4
:100D40006D00775150463C4902F09FFD02F024FEB1
:100D5000A84604000D0000980199314A314B02F079
:100D6000B2F922002B0002F090F902F023FA92234C
:100D70005B00071CF0502A4A02980399294B02F0A5
:100D8000A2F922002B0002F080F9942502F012FA59
:100D90006D00041C7051011C381C02F05FFD2749D6
:100DA00002F073FDA4235B00F050391C201C02F0FC
:100DB00052FD234902F069FDA6235B00F05030008C
:100DC00053464946F4623A1C37629624B830FFF71E
:100DD00037FE640030514046315830007259534656
:100DE000E430FFF72DFE0835705130003159603086
:100DF000FFF7A8FD300071598C30FFF7A3FD8A235F
:100E0000049A059C5B00F2500433F45007B03CBCDC
:100E100090469946A246AB46F0BDC04680842E411E
:100E2000182D4454FB2119400000A940BEBCA37BEF
:100E30002F1BD43F7B14AE3E00004845CDCCCC3CAC
:100E40009796163EF0B5C646040000B5081C151C62
:100E5000884602F0A1FD294A294B06000F0002F046
:100E60007BF900282FD130003900244A254B02F0AD
:100E70006DF9002835D0244B244E9846FA21281CC1
:100E8000890502F047FD002827D12149281C02F0DE
:100E90002BFD00282BD01F4F1D4D4346391CA3634B
:100EA000E563301C02F0D7FC1B4902F0DAFC391C68
:100EB000A062301C02F0D2FC174902F0D2FC606341
:100EC00004BC9046F0BDFA21134B8905281C9846B6
:100ED000124E02F01FFD0028D7D0FA25104FAD05A5
:100EE000DBE74146404602F0B9FC061CC6E70D4967
:100EF000281C02F0CAFC071CCFE7C0469A999999B2
:100F00009999B93F9999B9BFCDCCCCBDCDCC4CBE48
:100F1000000080BE7B14AEBDCDCCCC3DCDCC4C3ED4
:100F20007B14AE3D7B14AE3E030030B51531FF316E
:100F300034C934C334C934C334C934C30A681A60E9
:100F400030BDC046030030B53D31FF3134C934C334
:100F500014C914C330BDC046D0231B061B68F0B5AE
:100F60009A00454690464146894ADE4652585746C1
:100F700093465A1E934130224E465B421A40854B9F
:100F8000E0B59C46844B08269A4683B062440092A2
:100F90003500083DEA081300009908339B005C58AF
:100FA000002C23D05B46002B2AD001230F27994623
:100FB00039002140274213D04B4652464046AB40B1
:100FC00012581A420CD1072208002A409200904081
:100FD0000200EB0871483C339B001A502800D847A8
:100FE00024090135002C01D0B542E1D30836282E62
:100FF000CED103B03CBC90469946A246AB46F0BD6C
:101000000F2319002140234207D047460E3BAB4037
:101010006148C059184200D196E02309F11F002B06
:10102000E4D00F22100018401A420FD00123454689
:101030008B40594A52591A4208D10722CB08114015
:1010400089008840554A3C339B009850230AB11FC1
:10105000002BCBD00F22100018401A420FD00123D2
:1010600045468B404C4A52591A4208D10722CB08B8
:10107000114089008840494A3C339B009850230B1B
:10108000711F002BB2D00F22100018401A4239D124
:10109000230C311F002BA9D00F22100018401A4238
:1010A00041D1230DF11E002BA0D00F2210001840BB
:1010B0001A4252D1230EB11E002B97D00F221000DE
:1010C00018401A4206D0012345468B40324A5259F5
:1010D0001A4253D0240F721E002C00D186E7012340
:1010E000404693402C4909580191194200D07DE7B0
:1010F0000721D3080A40920094403C33274A9B00C2
:101100009C5073E7012345468B40234A52591A42AB
:10111000BED10722CB081140890088401F4A3C33CA
:101120009B009850B4E7012345468B401A4A525918
:101130001A42B6D10722CB08114089008840174ACD
:101140003C339B009850ACE707231D40AD00A940FD
:10115000124B3C329200D1505FE7012345468B4051
:101160000D4A52591A42A5D10722CB0811408900D5
:1011700088400A4A3C339B0098509BE70722CB08E3
:10118000114089008840054A3C339B009850A1E7F4
:101190009C16002000410140841B002000400140BB
:1011A000094A830094464022634410B51C68C0007D
:1011B0006240C02414408022520113431C60034B40
:1011C0009C466044416010BD04C0014000400140A5
:1011D0000A4B80009C4604236044002901D00C2364
:1011E0000821002A00D10B00026853400C221A404B
:1011F00080235B01184302607047C04604C0014071
:10120000F8B51E00D0231B061C680700631E9C4116
:10121000302364421C40224B15009C46C308072023
:101220001A003840800081403C321E4864449200DD
:101230009B001150E418002D11D080239B011C430A
:10124000D02321601B061C68174FA4003B59002BBC
:1012500011D0002E1ED03E51002D16D1F8BDC02356
:101260009B011C43D02321601B061C680E4FA40069
:101270003B59002BEDD1002EEED000220D200B4962
:101280003E5100F039F9002DE8D001210D2000F089
:10129000D1F8E3E70D20054900F010FADBE7C0467E
:1012A00000410140004001409C160020590F0010F1
:1012B0000123D0228340120693629361094A83007E
:1012C0009446402263441968C0004A40C02111403E
:1012D0008022520113431960034B9C46052360444E
:1012E0004360704704C0014000400140024B186851
:1012F0008007C00F7047C04600C00640F8B5EFF346
:10130000108772B60E4E3368002BFCD0BFF35F8F90
:10131000CB08C4180725A446C45C01230D40AB408C
:1013200018002040234208D1624623431370BFF3C4
:101330005F8F306087F31088F8BD100001F0F6FD74
:101340002C0100D0F8B5CE4647468C4680B5EFF369
:10135000108872B6214D2C68002CFCD0BFF35F8F33
:101360009A422CD8D4080721055D061901241140A2
:101370008C402C421FD007218946063909E0D40849
:10138000055D06194C460F001440A7403C002F4253
:1013900011D001329342F2D201204042BFF35F8F5D
:1013A00000220E4B1A6088F3108800280FDB0CBC5B
:1013B00090469946F8BD2C4310003470EEE7BFF319
:1013C0005F8F00232B6088F3108801204042634622
:1013D000002BECD0089801F0A9FDC0462C0100D0EC
:1013E0000021044B044ABFF35F8F02C39342FAD13A
:1013F0007047C046000100D0800100D0044A107838
:10140000431CDBB2172B00D9102313707047C04662
:10141000800E002000B5054B83B001000093182218
:101420001F230348FFF78EFF03B000BDF8630010D1
:10143000AC16002001238340002904D0034A136026
:10144000034A13607047034A1360FBE780E200E041
:1014500000E100E080E100E001238340014A1360E5
:101460007047C04600E200E0084B10309B688000E7
:10147000C358002B07D0064A00209B1A2F229A42FD
:101480004041C0B270470020FCE7C04600ED00E0DC
:10149000840E0020024B10309B688000C0587047BB
:1014A00000ED00E070B50D00EFF3108672B60F4A44
:1014B0001368002BFCD0BFF35F8F0D4B10309B687F
:1014C00084001B590B4A934203D09D4201D001F086
:1014D00045FD074B9B681D51BFF35F8FBFF35F8FC7
:1014E0000022024B1A6086F3108870BD240100D0E0
:1014F00000ED00E0CD010010F0B557464E464546E0
:10150000DE46E0B5894683B005001700EFF3108A88
:1015100072B65E4A1368002BFCD0BFF35F8F0020C9
:101520005B4B18569B46002800DA6CE05A46440094
:10153000584E2418A400331998469B79103513701F
:10154000554BAA009B6801929B589C469B1B2F2BD6
:1015500028D8012261469143CB79BB4208D86AE082
:1015600053009B189B00F318DD79BD4251D9190037
:1015700006228A56002AF3DA0B1D9B46474E434645
:101580005C46043B1B1B1B05454C5B0D23438B80BA
:10159000887141468A714A46424B8E800B60CF71FA
:1015A0008A601BE0404B9C4542D142463F4B02348F
:1015B00013803F4B3619043B9E1B3605384B760D86
:1015C0001E433C4B56809380FF23D7719371434653
:1015D0004A469A60012342461A43944661462E4B7E
:1015E000019A9B689950BFF35F8FBFF35F8F002212
:1015F000264B1A608AF3108803B03CBC904699468B
:10160000A246AB46F0BD01F0A9FC5B46002018568F
:101610008CE70B1D9B468B8804345B051B155B44D4
:1016200036199E1BE0233605760D1B021E43A6E7E6
:1016300001F094FCB9E745460B001F489B1B5B413A
:101640005843000D194B2B80A31C9C46B44465469F
:10165000174B0434043B5B1B1B05114D5B0DAC4663
:101660002B43454636196B800B1F9E1B6346A871A2
:1016700048463605760D1E430A4BAE80EF71A860D2
:101680000B60434613439C46A8E7C046240100D0A4
:10169000C91B0020840E002000ED00E001BD000009
:1016A00000E0FFFF01488047CD01001000A1FFFFCF
:1016B000B40E002001BDFFFFAAAA0000F0B5DE466F
:1016C00057464E464546E0B50C0083B0EFF310890F
:1016D00072B6594A1368002BFCD0BFF35F8F574B8B
:1016E0009A68030010339F00D559554A9046954299
:1016F00032D0A54243D0534EAA1B2F2A2CD8012208
:10170000824092465146504A12681140019151461A
:101710004E4A1160BFF35F8FEFF305829346002AB4
:1017200033D101232A009A4393689C4208D178E080
:101730004B005B189B00F3189968A1422AD01A004D
:10174000062151560029F3DA019B002B19D052468D
:101750003F4B1A603C4B1A60384B9B68DD51BFF31E
:101760005F8FBFF35F8F0022334B1A6089F31088BD
:1017700003B03CBC90469946A246AB46F0BD15006E
:10178000EAE75246314B1A60E6E79342C9D001F0CE
:10179000E5FBC6E706215956002922DB4A0050180E
:1017A000800034188046A0689860E079D8710620DF
:1017B00020569871A0797F2824D8A488F01A64054F
:1017C000241544440019E0240005400D2402204360
:1017D000988052181F4B9200B6181A781970B2717F
:1017E000B2E7594600290FD1FF3191711A49918012
:1017F00018490A789A71194A9B1B5B415A43120D8A
:101800000A70A1E71648E3E7164A1749D21A083AC0
:101810005002400D01439980144952080A43DA806E
:1018200092E70621515613000029B7DA5A46002ADA
:10183000EAD14546DCE7C046240100D000ED00E0D7
:10184000CD010010840E002000E100E080E100E006
:1018500080E200E0C91B002001BDFFFFAAAA000032
:1018600001BD0000BE0E002000F0FFFF00F8FFFFEA
:10187000F0B5EFF3058101240443EFF3108672B64F
:10188000214A1368002BFCD0BFF35F8F1F4B05006C
:101890001F4AED1A6D416A43120D1E4D8900AF6853
:1018A00052B27F58A7421CD00621595691421CD0F3
:1018B00012215956914222D01E215956914220D0D0
:1018C0002A2159560324914210D0134B19781A70CB
:1018D0008171BFF35F8F00220B4B1A6086F3108873
:1018E000F0BDAB680D4C5C50EFE7002461000919B6
:1018F00089005B18FF21997109499980E5E7012466
:10190000F4E70224F2E7C046240100D0840E002050
:10191000AAAA000000ED00E0C91B0020CD010010C4
:1019200001BDFFFF054B064A1360064A1360536072
:101930009360D360136153619361704780808080AE
:1019400000E400E004E400E000B5074B83B00100D0
:101950000093002205230548FFF7F4FC002801DB73
:101960001F23181A03B000BD14640010CF1B002001
:10197000024B9C466144890001607047400000347E
:1019800010B50400FFF73AFD01002000FFF7F0FF5B
:10199000FF232371BFF35F8F10BDC04610B5040055
:1019A000FFF72CFD01002000FFF7E2FFFF23A380DB
:1019B000BFF35F8F10BDC04610B504000120FFF7D4
:1019C00029FD034BC3189B002360BFF35F8F10BD3D
:1019D00040000034034B9C46614489000160BFF322
:1019E0005F8F70474000003483680B4810B5844611
:1019F00061446244090112019A18591854684B68ED
:101A000001209C4201D802D00020C0B210BD126853
:101A10000B689A42F9D8F7E7FFFFFF0F10B50800EF
:101A20000B690C009847002802D02068616810BD3F
:101A3000E06000210020FAE70A4B1968EFF31080FC
:101A400072B60A68002AFCD0BFF35F8F1B68BFF331
:101A50005F8F00221A6080F3108840BF00200021B1
:101A60007047C046981B0020F8B5574645464E467D
:101A7000DE46E0B599460CAB19780DAB1B78050036
:101A800090469A460768002912D1BE7B002E45D0A9
:101A900074003B68A419033C1B195A783100BA73CF
:101AA000002A00D1FA7300229A705A701A7003E06B
:101AB0000E004C006418033C2C4B00229C46AB6883
:101AC00061449C464346090161440B604B464B60B0
:101AD0000A9B8B600B9BCB603B681B199A705A70FA
:101AE0001A707B7B9B46002B2CD032005946B8687D
:101AF0007B6898473A68002817D05B4658465B00D9
:101B00005B441419033BA070D118D35C002B00D0A8
:101B100063705B460E707B73B34514D030003CBCE1
:101B200090469946A246AB46F8BD5B465B005B44D7
:101B3000033BD3189E701119125D002A00D05A7011
:101B40005B460B707E7342464B46287D00F0CCFC12
:101B5000041E06D05346002B03D13100286800F044
:101B600009FF0E9B002BD9D01C70D7E7FFFFFF0F9A
:101B7000F0B5DE4657464E4645460023E0B58BB0ED
:101B80000893674B8200D45800239B46099000F0CD
:101B900021FC626806000F00EFF3108572B613682F
:101BA000002BFCD0BFF35F8F23689C465B7B99467C
:101BB000002B00D169E0A2685A4B90464B441B01B0
:101BC000984443461A685B6810001900801BB941AD
:101BD000002900DC63E0099800F086FC0023002265
:101BE000984600230692079300239A466368BFF342
:101BF0005F8F5A461A6085F310885346002B08D130
:101C00000028C4D10BB03CBC90469946A246AB46D6
:101C1000F0BD089B414618024B461843D047626806
:101C200006000F00EFF3108572B61368002BFCD08E
:101C3000BFF35F8F002F50DB33003B4302D023699B
:101C4000002B61D12368DA7B002A07D051008A1863
:101C500019688C4649466244033A51709A7B002ABF
:101C600001D14A469A734A46DA734B46E168013B12
:101C7000CA5C0132CA545B4623616368BFF35F8F5D
:101C80005A461A6085F3108881E70023002298469F
:101C9000002306920793002300209A46A6E7002916
:101CA00002D1002800D096E70021604600F0C0FD78
:101CB00043461A685B680692079343469B689A46B8
:101CC0004346DB689846E3684B44013B1B78089326
:101CD0001B0203432361002088E72369002BB1D056
:101CE000069A079B921BBB41002B15DB59460491BA
:101CF000012103914946029141460191514620003C
:101D00000091FFF7B1FEB6E700F064FB32003B0044
:101D100012184B41002BE9DA0122034B5242E5E74E
:101D2000741B0020FFFFFF0FFFFFFF7F10B5144C57
:101D30006368002B04D00A211248FFF719FE10BD7A
:101D40002300114A1021206800F08CFC032000F0D1
:101D500035FB032000F032FC03200C4900F07EFB31
:101D6000FFF74CFB0A4B9C4603232375D0231B062D
:101D70001B6860446375074B80006060DC60DAE7D5
:101D8000CC0E0020981B0020E9190010711B0010D8
:101D900040000034741B002000487047CC0E002027
:101DA000F0B54E464546DE465746E0B585B0019350
:101DB00010AB1B78804603930023002699460092BF
:101DC00043465A68EFF3108B72B61368002BFCD0B1
:101DD000BFF35F8F43461D68AC7B002C43D0670088
:101DE0002B683F19033FDB195A78AA73002A00D1E8
:101DF000EA7342469E705E701E709268494B94462C
:101E00000099019AE3181B01634419605A600E9A05
:101E10009A600F9ADA602B68DB199E705E701E70F4
:101E20006B7B9A46002B68D022001900A8686B686B
:101E300098472A68002853D0534650465B005344C5
:101E4000D719033BB870D118D35C002B00D07B703E
:101E500053460C706B73544550D04346DB681B19D6
:101E6000013B187800E0002043465B68BFF35F8FBA
:101E70001E608BF31088002C51D04B46002B08D1EC
:101E80000002204305B03CBC90469946A246AB46B2
:101E9000F0BD039B002B40D00E9B00200F9998476C
:101EA000030004000D000B4337D000290ADA009A22
:101EB000019B121BAB4100920193002B0ADB039B99
:101EC00099467DE700F086FA24184D41009401956B
:101ED000002DF4DA0123144C5B4200930194EEE7E9
:101EE00053465B005344033BD3189C70D119D25D19
:101EF000002A00D05A7053460B706C734346187D0D
:101F0000009A019B00F0F0FA81460028A5D04346D4
:101F10002100186800F02EFD9FE70020B2E70120A5
:101F20004042AFE7FFFFFF0FFFFFFF7F407D70479D
:101F3000F0B54E464546DE4657461100E0B585B041
:101F40008046109E194300D1D3E0D81707005740B0
:101F50003C0007005F4001003D00241A8D414146CE
:101F60007360B1600F9B0E9932603161736100F054
:101F700031FA0019694100900191002900DAC8E0A6
:101F80000023B1469A46464602937368EFF3108BDE
:101F900072B61A68002AFCD0BFF35F8F3568AC7B3D
:101FA000002C5FD067002B683F19033F0394DB19B7
:101FB0005A78AA73002A00D1EA7352469A705A706E
:101FC0001A70B268584B94460099019AE3181B01A5
:101FD000634419605A60554A9A604A46DA6052462C
:101FE0002B68DB199A705A701A706B7B9846002B1D
:101FF00000D170E022001900A8686B6898472A6831
:1020000000285CD0434640465B004344D719033B5D
:10201000B870D118D35C002B00D073E043460C702D
:102020006B73444558D0F3681B19013B1B787268E9
:10203000BFF35F8F514611608BF31088002C63D083
:10204000029A002A12D1039A1B02134301224E4620
:1020500002920298F36005B03CBC90469946A246B5
:10206000AB46F0BD002200230392E0E74846036937
:102070009847071E02D14E460023EAE74B461C68EC
:102080005D6823002B434AD0002D09DA009A019B9A
:10209000121BAB4100920193002B09DB029774E7FE
:1020A00000F098F924184D4100940195002DF5DABF
:1020B00001231F4C5B4200930194029765E743465E
:1020C0005B004344033BD3189C70D119D25D002AB6
:1020D00014D143460B706C73307D009A019B00F065
:1020E00003FA029000289ED02100306800F042FCE4
:1020F00099E7012400250122002330E75A70434666
:102100000B70E8E77B7089E700234E460293013BA2
:102110009FE70123064C5B420093019430E74E4653
:102120000023029795E7C046FFFFFF0F1D1A00101E
:10213000FFFFFF7FF0B504000D0006267642F7177B
:10214000C64636196F4100B584B08F4214D811D0FD
:1021500000F040F932003B00121A8B41002B15DCD5
:10216000002B3ED02000290000F068F904B004BC28
:102170009046F0BD8642EBD90026002700F02AF9F0
:1021800032003B00121A8B41002BE9DD0023029341
:102190000193154B3200009314483B00FFF700FEFB
:1021A0000028DFDB00239846BC46114A114F7B6AAA
:1021B0009C4504D8B96A8E42D4D99C45D2D11168C5
:1021C000EFF3108072B60B68002BFCD0BFF35F8F6B
:1021D0001368BFF35F8F4146196080F3108820BFFA
:1021E000E5E7002ABED0D1E7391A0010CC0E002056
:1021F000981B00200040054070B5060000F0EAF88A
:10220000FA2204000D00002330000021920001F0AA
:1022100005FB00196941002902DBFFF78BFF70BD48
:10222000012001494042F8E7FFFFFF7FF0B5EFF3DF
:102230000583CE46474680B505000C0085B0002BCF
:1022400012D02C4B0020596A8C4203D89B6A013073
:10225000AB4204D305B00CBC90469946F0BD611A60
:10226000481E8141C8B2F5E7234E02930193234BE8
:102270000200009330000B00FFF792FD031EE0DD2B
:1022800020BF7168EFF3108772B60A68002AFCD08D
:10229000BFF35F8FDAB294463068427B62451DD04F
:1022A000FF221A40510089460168914488464946F8
:1022B000414403398978002913D0F1681B0A884604
:1022C0004244013A1278DBB29A420FD07368BFF3EE
:1022D0005F8F00221A6087F31088B2E7FF221A404E
:1022E000EBE732699342F1D13161EFE7614600F0EB
:1022F00041FBEBE700400540CC0E0020391A0010EE
:10230000F0B5EFF30582D6464F4646461000C0B5FD
:102310001038EFF3108872B6214C2368002BFCD0E4
:10232000BFF35F8F0123190081401E4D1F006963B9
:10233000AA461D4D29601D4D2E78AC463500C5407E
:102340002F402B4215D05346194D5F6A83005D59CB
:10235000AF4218D3174A8E439B5862461670BFF39C
:102360005F8F0022226088F31088002B06D09847E8
:1023700004E0BFF35F8F276088F310881CBC904691
:102380009946A246F0BD0C4B92009C4662441368ED
:102390001360BFF35F8F0023236088F31088EDE79D
:1023A000280100D0004005403C700540CD1B0020B6
:1023B000A41B002088150020D03F054010B5010067
:1023C000024A0348FEF79AFF10BDC0463064001071
:1023D000C81B0020034B596A0A00986A596A8A424E
:1023E000FAD170470040054070B504000D00124A54
:1023F000536A1900966A536A8B42FAD13000190069
:1024000024184D41AB4211D80ED02B000A494A6A1C
:102410009A42FCD307D1084A02E0516A994202D19C
:10242000916AA142F9D370BDA642EED901230124DD
:102430006442E5175B42E9E700400540064A536AFB
:102440009942FCD807D1044B02E05A6A914202D16A
:102450009A6A8242F9D370470040054070B5040083
:102460000D00EFF3108672B61A4A1368002BFCD0E9
:10247000BFF35F8F002D1BD02000FFF70BF816492C
:1024800081420AD02000FFF70DF801212000FEF75D
:10249000D1FF0123A340114A1360114BA400E55062
:1024A000BFF35F8F00220B4B1A6086F3108870BD5C
:1024B0000B4BA200D5500122A2400A4920000B7804
:1024C00093430B700449FFF7F9F800212000FEF751
:1024D000B1FFE5E7280100D0012300103860054076
:1024E00088150020CD1B0020F0B54F46D646464645
:1024F000C0B507002C4C616A0D00A66A616AA9424A
:10250000FAD18B4208D805D001201CBC90469946D0
:10251000A246F0BDB242F7D9EFF3108972B6234854
:1025200001680029FCD0BFF35F8F01252049BD4021
:102530008C4609781C4C0E002E438846F1B28A4620
:10254000614650460870391D1A48890065630A5172
:10255000B9000B50216A0020294219D0616A080095
:10256000A66A616A8142FAD18B4219D801D1B2427E
:1025700016D8C24516D00C4B1F201D625D63012387
:102580000740BB400C4A1E381360634642461A702F
:10259000BFF35F8F0022054B1A6089F31088B4E700
:1025A0000020F5E70120F3E700400540280100D0B6
:1025B000CD1B0020A41B002080E200E010B5EFF34B
:1025C000108472B60A490B68002BFCD0BFF35F8FF2
:1025D00001238340074A0848136202789A43027035
:1025E000BFF35F8F00230B6084F3108810BDC046DB
:1025F000280100D000400540CD1B002070B505002B
:102600000E001400002924D0002A24D080686B68B2
:102610009847296800280ED063001B197200033BFD
:102620009219CB18033A9E7088188A5C002A14D13C
:10263000047030000EE073009B196200033B121916
:10264000CB18033A9C7088188A5C002A00D05A7014
:102650000670200070BD0800FCE75A70047030005E
:10266000F8E7C04630B583600023CCB24373013332
:10267000047342608373C4730D000068012C06D993
:10268000421C0133DBB2137003329C42F9D1FF21AB
:1026900029404B005918002340180338437030BDBF
:1026A000F8B5CE46474606000C0080B5002907D095
:1026B0004D0003686D18033D5A195778002F04D157
:1026C00020000CBC90469946F8BD7900C919033921
:1026D000884643445978894600215970517073687F
:1026E0003A002100806898473368002814D0424699
:1026F0009A18947059195B5D002B00D053700F70BD
:10270000270049463000FFF7CBFF390002003000B8
:10271000FFF774FF0400D3E7424641465D19AF70EE
:102720009A185B5C002B00D06B701470E9E7C04610
:10273000F0B557464546DE464E46E0B50D006B0007
:1027400001685B19DF1E0400C85D83B00192CA19DD
:10275000002850D043001B18033BCB185E78B446CA
:10276000002E1AD1019E002E42D0E67B002E04D00E
:1027700073009B19CB18033B5D70A37B002B00D12A
:10278000A573E57300282FD10023537003B03CBC20
:1027900090469946A246AB46F0BD72006244033AA9
:1027A00089184A78904600224A7091465A70010072
:1027B00032002000FFF722FF43468246002B07D05D
:1027C0005B0021684344033BCB185A78002A16D19A
:1027D000424651462000FFF711FF2168019BCA19AC
:1027E000002BC2D10028CFD043001B18033BCB18CD
:1027F00000219970C8E7019B002BB6D1C4E75000B7
:10280000801803380918487883464846487058703D
:1028100041462000FFF7F2FE594680462000FFF7B0
:102820003FFF414602002000FFF7E8FE8046CFE769
:10283000F0B54E464546DE465746E0B5467B0400B9
:1028400075000068AD19033D83B00191415D4219E7
:10285000002952D04B005B18033BC3185F78BC467D
:10286000002F1CD1019D002D44D0E57B002D04D00C
:102870006B005B19C318033B5E70A37B002B00D178
:10288000A673E673002931D10023300053706173C1
:1028900003B03CBC90469946A246AB46F0BD7A00D8
:1028A0006244033A8018427893460022427091466F
:1028B0005A7020003A00FFF7A1FE5B468046002BCD
:1028C00007D05B0021685B44033BCB185A78002A91
:1028D00017D15A4641462000FFF790FE019B0100A8
:1028E00020684219002BC0D10029CDD04B005B18C5
:1028F000033BC31800209870C6E7019B002BB4D19E
:10290000C2E75000801803380918487882464846C4
:102910004870587059462000FFF770FE53468346B2
:10292000002B07D05B0021685344033BCB185A7837
:10293000002A06D1594652462000FFF75FFE834623
:10294000C7E7500080180338091848464F78487088
:10295000587051462000FFF751FE39008146200093
:10296000FFF79EFE494602002000FFF747FE824621
:10297000E0E7C04670B5040000292CD0437B8B42B1
:102980002ED0056848004018033828188278002A9D
:1029900021D053009B18033BEA5CEE188A4202D117
:1029A0001BE0002A08D053009B18033BEB185A7811
:1029B0008A42F6D142785A70002301228370437014
:1029C0002000FFF7B5FE617B02002000FFF716FE36
:1029D0006073012000E0002070BD43783370EBE7A6
:1029E00001221900FFF7A4FE60730120F4E7C0463E
:1029F00030B50C2083B000F0B3F9FEF777FC002867
:102A00000ED0994B994A1A605A609A60DA601A613E
:102A10005A619A61DA611A62954A5A6203B030BD0E
:102A2000944CA06700F0F0F90122934B1A60636C9C
:102A3000012BFCD10322914B1A608E4A936B012B20
:102A4000FCD1013301218E4A8E480093043300F0FB
:102A500037F905238C4A009301218C4800F030F9A6
:102A60008B4B5A68FF2A02D8802252005A6080227B
:102A70007D4C824B21691201854D1A60002907D0D7
:102A8000606900F0C7FA431C5800C0180338FDD233
:102A9000E0217F4B02201A681140802252012A4314
:102AA00011601968484003210140116004219A68AF
:102AB0001142FCD08022802192012A430901116039
:102AC000802252005A60734B2361734B5968FF296F
:102AD00000D85A6003227048674B01211A60020037
:102AE00093681942FCD0E02513681D4080235B01E8
:102AF00003431D6012684A400321114019600221FE
:102B0000654A93681942FCD0802380219B010343CE
:102B1000090119608021614B490051606361604B7C
:102B20005A68FF2A00D8596080225E4BE169120181
:102B30005B4D1A60002907D0606900F06BFA431CF6
:102B40005800C0180338FDD2E02255490B681A40DE
:102B500080235B012B431A60802380229B012B433F
:102B600012011A608022414B52004A60E3614E4BD1
:102B70005968FF2900D85A6080224C4B216A120103
:102B8000494D1A60002907D0606900F043FA431CE0
:102B90005800C0180338FDD2E02243490B681A40A0
:102BA00080235B012B431A60802380229B012B43EF
:102BB00012011A60802380225B004B602B4BD202F3
:102BC00023623B4B5968914200D25A608022394BB4
:102BD000616A1201364D1A60002907D0606900F061
:102BE00019FA431C5800C0180338FDD2E0223049BE
:102BF0000B681A4080235B012B431A6080238022DC
:102C00009B012B4312011A608023DB024B60184B9F
:102C10006362294B5A68FF2A02D8802252005A6008
:102C20008022264BA1691201234D1A60002907D08A
:102C3000606900F0EFF9431C5800C0180338FDD25A
:102C4000E0221D490B681A4080235B012B431A6068
:102C5000802380229B012B4312011A6080235B009A
:102C60004B600E4BA361D9E6B0160020006CDC026D
:102C70001BB70000008000403CB0004030B0004076
:102C8000002F685900800240008C864700C0024037
:102C900030800040001BB7003C8000404059730763
:102CA0005480004054B000406080004060B000405C
:102CB0006C8000406CB000404880004048B000404C
:102CC000F8B50400214817001D000E0000F0A2F91D
:102CD0000100380000F09EF9069A2B0412031343FA
:102CE0002268002A21DB1A4AA21851424A41802157
:102CF00049018C4652420A40164962440A6016490C
:102D00000A60164917008D68AF43FBD1C021221D10
:102D10008901114321222660A0600A602268002AEE
:102D2000FCDAE36008230B60F8BD3F2221680A400B
:102D3000B242D8D1A2681205120D8242D3D1EE213F
:102D4000E268C9020A409A42CDD1EDE7001BB70004
:102D50000040FDBF00E0004000F0004000C0004027
:102D60008023024A9B000343D362704700800540E2
:102D700010B5140080221B4BD2051A6000281AD00F
:102D80000123194A1843194BDA61194A42401A6261
:102D9000596298628022134BD2051A601549164A6F
:102DA0001160E022D2041A60002C07D18022134B5C
:102DB00012061A6010BD0D4BD861EBE7802362014B
:102DC000121B9200121912015B049A4200D30C4AA2
:102DD0000C4B1A60054B5A608022084BD2051A60D2
:102DE000E8E7C04600B00540D3C007B0008005400A
:102DF0002D3FF84FFCFF01000820014000A00540D6
:102E0000FFFFFF00641B0020AA23064A1B0113607A
:102E10002F230549D360054B19605368002BFCDA5A
:102E20007047C0460040024000B0FA000060024017
:102E30002C4B2D4A70B51A602C4A2D4B2D491A6027
:102E400010008B689843FBD12B4C2C4B9C4209D231
:102E5000013B1D1BAD080135AD002D1908CC98476D
:102E6000AC42FBD1FFF7C4FD254A214B1A60214A31
:102E70009368DB018033FBD14022224B224C234D4F
:102E80009A675A671A67DA66AC4208D2236820004C
:102E9000002B21D00834FEF781FDAC42F6D31C4C48
:102EA0001C4DA168C022280000F0C8FEA560FEF7F6
:102EB00097FAFEF737FDFEF739FF174C174B9C4288
:102EC00009D2013B1D1BAD080135AD002D1908CC01
:102ED0009847A542FBD170BD0834FEF751FDAC42C6
:102EE000D4D3DCE700E00040BFCDFBFEFE7F3C001A
:102EF00000F0004000C00040640F0020740F00206C
:102F0000FFFFFF0100F001405C0F0020640F002074
:102F100000ED00E000000020740F0020800F002072
:102F200000BEFDE710B5FFF7FBFFC0460FB400B5CC
:102F3000084883B000F066FF049B002B07D005A96A
:102F40001800019100F018F8034800F05BFF012021
:102F5000FFF7E6FF546400106464001010B50148E8
:102F6000FFF7E4FF6864001010B5002800D110BD21
:102F700000F0FCFEFBE7C04610B5094A03001468E8
:102F800084B0002C08D0012200910648524203A9C7
:102F9000A047012004B010BD00F034FF0020F9E785
:102FA0005C1B0020692F001001480421014B1847C9
:102FB000000F0020D92F0010142310B5010018882D
:102FC00004331B88984710BD162310B501001888DC
:102FD00002331B88984710BDF0B5C64600B50029DE
:102FE00016D0142304000125984618278900461896
:102FF0004346216818883B88984701C4431E98417E
:1030000040420540A642F3D1280004BC9046F0BDE2
:103010000125F9E7114A936F9B0813D21066516698
:10302000002905D0FFE7FFE7FFE7516F106F7047FA
:1030300004B5002801D00020C04303F095F9002119
:1030400004BDC046F0B5146E556E576F166FFFF78E
:10305000E5FF1466556657671667F0BD000000D09F
:1030600048404140484018B41B4B5B68FC46019304
:1030700008BD04DFBF32001018B4174B1B68FC46B4
:10308000019308BD00DFC93200109446134A926FC5
:10309000920809D2624618B40F4BDB68FC460193D4
:1030A00008BD0CDF813500100C4AF0B5146E556E6A
:1030B000576F166F6246FFF7EEFF084A14665566B3
:1030C00057671667F0BD18B4034B9B68FC46019325
:1030D00008BD08DF25340010D01B0020000000D000
:1030E000FFB550404240504059404B40594000E0ED
:1030F000FFB5154F4C00640D03D0BC4204D10C0346
:1031000014D80020090D09055C00640D03D0BC42F1
:1031100004D11C030AD800221B0D1B0501264B40BD
:1031200009D44B4003D58B4200D18242FFBD994266
:10313000FCD19042FFBD0B43DB1803431343F5D092
:10314000C9434918FFBD0000FF07000000B5FFF7A5
:10315000CFFF804100BDC04600B5FFF7C1FF8041F1
:1031600000BD00000021002805D17047C11748406C
:10317000401AFAD0C90713B5064B1B6898470CBC18
:10318000441CA2401005120B0349091B09051943F1
:10319000114310BD941B00201F04000018B4044B01
:1031A000DB6DFC46019308BD5CDFA5370010000015
:1031B000D01B002018B4044BDB6FFC46019308BD04
:1031C0007CDF313700100000D01B0020132370B5C6
:1031D0001D78012D15D010DD2748FFF7F5FE274C8F
:1031E00001008022200000F029FD022D06D0244895
:1031F000FFF7E2FE234B186070BD204C224AA26408
:10320000F5E72E001D4C204AA3085B421E401D42DC
:103210002FD0330022602020B1006118801B0A608B
:103220004A608A60CA600A614A618A61CA610A6248
:103230004A628A62CA620A634A638A63CA630A6428
:103240004A648A64CA640A654A658A65CA650A6608
:103250004A668A66CA660A674A674008102803D128
:103260008A67CA67A264C2E71E339B00E250A26469
:10327000BDE70023CFE7C04653440000D01B002029
:103280004C330000941B00208D32001007B56046BF
:1032900001880A0A0230DF2AFAD1C9B2820804D3AF
:1032A000028840880004104300E00068014A505042
:1032B000039007BDD01B00200FB403BC0CBCF0B5BD
:1032C0000124E407634000E0F0B50C0DCF0F661E4B
:1032D0003605891B640503D3C943404200D301313D
:1032E000640D03D0661CF60A07D0E41B00207F00A3
:1032F000791C89078912803C24031D0DDF0F6E1E87
:1033000036059B1B6D0503D3DB43524200D30133CB
:103310006D0D03D06E1CF60A07D0ED1B00227F0056
:103320007B1C9B079B12803D2D032F1B661B58D4D3
:10333000A446202E46DA20371400BC401D00BD40B4
:10334000F24033412A4380185941CB0F05D0C9437D
:10335000C043002264425041514162464D0D28D184
:103360000D0D07D100281FD0241940414941013AD1
:103370000D0DF9D0640006D3013000D30131002CCB
:1033800001D140084000013A0BD4941CE40A04D156
:1033900012051144DB071944F0BDD907204B19432E
:1033A00000E0D9070020F0BD0029DDD1002CDBD1E1
:1033B000F0BD0132C6074008CD0728434908002E5A
:1033C000E1D0D9E73C2E29DA203E40371400BC403A
:1033D00000D00124F24014431A00BB401C43D31711
:1033E000ACE7AC46202F08DA20360400B4400D00CC
:1033F000B540F84039412843A5E73C2F0CDA203F7F
:1034000040360400B44000D00124F84004430800D2
:10341000B1400C43C117EAE710001900002494E7FB
:103420000000F07FF0B50C0D661E3605891BE60A1C
:103430006405640D02D0651CED0A04D00020012152
:103440000905803C2403A4461C0D671E3F05DB1BB9
:10345000E70A6405640D02D0651CED0A04D0002261
:1034600001231B05803C24037740644497B484B255
:1034700096B27443070C7E43150C6F4380B26843C9
:10348000361802D3012000043F183004350C00190F
:103490007D41844688B29AB250430C0C62431F0CA3
:1034A0007C438EB27E43921902D301263604A419BE
:1034B0001604170C3618674101BC81B29AB2514309
:1034C000040C62431B0C5C4380B25843121802D3B5
:1034D0000120000424181004130C401863412D1817
:1034E0005E410020474106BC88B293B258430C0CA1
:1034F0006343120C544389B251435B1802D3012138
:103500000904641819041A0C091862416D1856410F
:103510000020474118BCF902720D1143F0026A0DF8
:103520001043ED020A0D03D16D1940414941013BA1
:10353000124E9B1B7600B3420ED26D0007D30130B2
:10354000002671416646354301D1400840001B0505
:10355000C918E4072144F0BD0BDA013306D101306C
:1035600004D101314F0D01D04908F2E7E1070020F5
:10357000F0BD013631050020EBE70000FF0300003D
:10358000F0B51C0D671E3F05DB1BE70A6405640DE3
:1035900002D0661CF60A04D0002201231B05803CE1
:1035A0002403D0252D060026F6432E661E096E66DE
:1035B000CE0FF619B44649004F0D02D07E1CF60A14
:1035C00003D000200021403F3F033E1BB600B4441F
:1035D000013F7F05C91B49082E6F013676089C0202
:1035E000950D25437543ED137543AD1301356D10EE
:1035F000F603761B0CB4CC02450D2C43A2B2B3B239
:103600005A43270C7B43350C6F43A4B26C431B1900
:1036100002D3012424043F191C041D0CA4187D416D
:1036200024196D41009A91B2ACB26143170C7C43EE
:103630002B0C5F4392B25A43A41802D30122120406
:10364000BF182204230C52187B41019C6C431B19A8
:10365000520ED9010A434401A01A81B2B2B25143B9
:1036600003145A43360C734387B27743D617D219E3
:1036700000277E4136049B191704160C7F185E4103
:103680007316ED18F301002680337541A90F06D19A
:103690006400690AE8055B0A184309D22FE0042296
:1036A000944480337541A90AA8059B0A184326D380
:1036B000404149412404009A019B0D005543641B7D
:1036C0004343E41A95B286B27543170C7E43030C4C
:1036D0005F4392B25A43B61802D301221204BF18B4
:1036E0003204330C52197B4152429C41002C02D4CB
:1036F0000022013051414008CA071043490802B076
:103700006246D7079210084BD218084B9A4203D250
:1037100012058918C919F0BD0020002A01DC390002
:10372000F0BD01331905F5E7FD030000FE070000B9
:103730004A00520D144BD21A13DDFF2A1EDAD205AD
:10374000CB0FDB071A43C300400F0903490A0843A4
:1037500010435B0001D301D0013070474308FBD216
:10376000704702D0C80FC00770470A031213013216
:10377000F8D1420F072AF5D1012200E0FF22C80F3D
:1037800000028018C00570478003000000210A0075
:10379000002104E000210A00C11704E000220023F8
:1037A00006E0C0460022CB1758405940C01A994144
:1037B00030B5184CA21A002903D1010010D0002006
:1037C000203A4C1512D104D2013A001849414C0D4F
:1037D000FAD3114CA24204D212058918DB07C9188A
:1037E00030BDD243520D00200021F5E703D4013A49
:1037F00000184941FBD50B324405C00A4D0528434A
:10380000C90A640003D0002460416141E1E7E0D3CC
:103810004408F8E732040000FE0700005143434328
:10382000C9188C46110C83B24B4310B4040C61438D
:1038300092B280B2504362431C041B0C001910BCAE
:1038400059411304120CC0185141614470470000E3
:103850004840414048400E4B5B6818470C4B1B6882
:1038600018470C4A936F9B0802D2094BDB68184734
:10387000F0B5146E556E576F166FFFF7F6FF054AD9
:103880001466556657671667F0BD014B9B6818476D
:10389000D01C0020000000D007B5484041404840FF
:1038A00001E0C04607B54200120E03D0FF2A03D143
:1038B000420218D8C00DC0054A00120E03D0FF2ADC
:1038C00003D14A020FD8C90DC9050122414005D4D0
:1038D000414001D5814207BD884207BD01434918D7
:1038E00001D0C043001807BD00B5FFF7DBFF8041E2
:1038F00000BDC04600B5FFF7D5FF01D9002000BDCF
:10390000012000BD00B5FFF7C7FF01D9002000BDB1
:10391000012000BD00B5FFF7BFFF804100BD4100A1
:103920000A0E80231B067E2A0BDD9E3A0BDAC11796
:103930004002400818435242D040490001314843F8
:10394000704700207047C00FC01801387047C04250
:103950000CD300B540004008002100F011F8002809
:1039600001D4404200BD8020000600BD034BDB694E
:10397000FC4618471CDFD93B00100000D01C00207B
:10398000014B5B6A18470000D01C0020014B1B6BE9
:1039900018470000D01C0020034BDB6FFC46184783
:1039A0007CDFF13B00100000D01C00204100090E1C
:1039B000862902DA044BDB6B1847044900B500F096
:1039C000EFF802BC8E46F5E7D01C0020DB0FC940A3
:1039D0004100090E862902DA044B1B6C1847044982
:1039E00000B500F0DDF802BC8E46F5E7D01C0020E3
:1039F000DB0FC940132310B512481C78FFF7E4FA17
:103A00000100012C0AD003DD80220F4800F016F9D6
:103A10000E48FFF7D1FA0E4B186010BD0A4C542225
:103A2000200000F00BF90B4B6365A365E36523668B
:103A30006366A366E36623676367A367E36723623E
:103A4000E361E5E753460000D01C00204C33000042
:103A5000941B0020AD3B0010F8B557464E46454636
:103A6000DE46E0B5FF268846C40DC90D3440170078
:103A70000E40002A01D000231360FF2C5FD0002EDF
:103A80005DD0002C5ED0FF2E53D0731EA34250DCBD
:103A9000C20F944680221204914645026D0A1543D6
:103AA000424649465202520A11438946A34251D026
:103AB0006346002B58D000216D42A41B002C5CDD16
:103AC0004B460120D9114042FFF7A4FA1D2383463B
:103AD00000219C4622000C2C00DD0C2258466B1263
:103AE000954043436046AA46801A03414D465046DE
:103AF000914001335B105D435918451BA41A002CFB
:103B0000E8DCA94537DC4B46ED1AA94546DCED1A41
:103B100002316B004B4519DC16D04346002B00DA0E
:103B20004942002F00D0396096212800891BFFF7F9
:103B30002DFF3CBC90469946A246AB46F8BDFF20FF
:103B4000C005F6E70020F4E7CB07E6D54B46013188
:103B5000ED1AE2E78D42ECDD6346002B13D14B00FA
:103B600026000121ED1AD8E7A41B002CA8DC8D4209
:103B700011DA0021CDE7002DCBDA4B46ED1808D540
:103B80004D440239C5E74B00012126005D1B494227
:103B9000C3E70139BDE74B460021ED1A0131B8E713
:103BA00010B50022FFF758FF10BDC04607B56046AC
:103BB00001880A0A0230DF2AFAD1C9B2820804D386
:103BC000028840880004104300E00068014A505019
:103BD000039007BDD01C00200021C2158032803226
:103BE00001D0024A1047002070470000CD2A000093
:103BF000C30FDB0741000A0E07D0FF2A08D00909CE
:103C0000054A89181943400770471900002070477A
:103C10000249C918FAE70000000000380000F07FF0
:103C200001480421014B1847100F0020D92F001024
:103C3000014B1B6818470000100F0020014B5B6808
:103C400018470000100F0020030010B508001B6883
:103C50001100984710BDC046030010B508001B684E
:103C60001100984710BDC046F0B5DE4657464E4697
:103C70004546E0B585B017001C0006000D00FEF7B4
:103C8000A9FB0023324A12184B41002B5BDB314960
:103C900008008A4602F088FB01906B1C03D13000BB
:103CA00002F012FB0500002C28D12B4B98462B4B21
:103CB0001C68002C15D0002F23D1294F02E0246965
:103CC000002C0ED02368002BF9D03B68002B01D0CC
:103CD000A342F4D120002A003100C0472469002CFF
:103CE000F0D1019B002B2AD1681E8541E8B205B0B6
:103CF0003CBC90469946A246AB46F0BD194B98464F
:103D0000D5E7174B994602ABDF1D0A239B4602E01D
:103D10002469002CE5D02368002BF9D04B461B68A2
:103D2000002B01D0A342F3D12A0031002000C0476C
:103D30005B460122390020003B70C047E8E750464F
:103D400002F002FBD0E70122074B52429FE7C04638
:103D500040420F005C0F0020593C0010401700202B
:103D600058170020493C0010FFFFFF7FF0B5CE46FA
:103D7000474680B583B06B460500DE1D3070FEF708
:103D800029FB00231A4A12184B41002B2CDB19493E
:103D90000800884602F008FB174B07001C68002C3F
:103DA00016D0164B994602E02469002C10D02368E7
:103DB000002BF9D04B461B68002B01D0A342F3D156
:103DC000200001223100FFF747FF2469002CEED1CB
:103DD000002F05D1280003B00CBC90469946F0BDD9
:103DE000404602F0B1FAF5E70122054B5242CEE718
:103DF00040420F005C0F00204017002058170020A1
:103E0000FFFFFF7F70B5040002F05EFA002301009F
:103E1000050001222000FFF727FF084B1C68002C3B
:103E200006D06368002B05D098472469002CF8D190
:103E3000280070BD2469002CF3D1F9E74017002059
:103E4000F0B5CE46474680B583B06B460500DE1D13
:103E50003070FEF7BFFA00231A4A12184B41002BAC
:103E60002CDB19490800884602F09EFA174B070020
:103E70001C68002C16D0164B994602E02469002CD1
:103E800010D02368002BF9D04B461B68002B01D0C3
:103E9000A342F3D1200001223100FFF7D5FE2469AF
:103EA000002CEED1002F05D1280003B00CBC9046A9
:103EB0009946F0BD404602F047FAF5E70122054B6E
:103EC0005242CEE740420F005C0F00204017002016
:103ED00058170020FFFFFF7F0A4A1368002B05D107
:103EE0000CE01A001B691032002B07D09842F8D161
:103EF000002902D103691360016170470029FCD0D9
:103F00001060FAE74017002010B500F027FA10BD46
:103F1000F0B5CE464746040080B583B0FEF75AFAA6
:103F20002600002736184F41002F32DB3D001B4B87
:103F300099461B4B98464B461C68002C03D117E052
:103F40002469002C14D043461B68002B01D0A342E7
:103F5000F6D1A368002BF3D0012101A898470028CF
:103F6000EEDD6B46187903B00CBC90469946F0BD67
:103F70000C4B5A6AAA4207D39B6AB34201D2AA42A7
:103F800002D001204042EEE701200021FEF72CFA8A
:103F9000D1E70126044D7642C9E7C046401700200C
:103FA0005817002000400540FFFFFF7F7047C046C4
:103FB0000022014B1A707047CA1B00204B79002069
:103FC000FF2B0BD18B79002B08D1CB79012B05D19D
:103FD000082A03D98A78024B09301A707047C04604
:103FE000CA1B00200120704770B5012909D115496D
:103FF0005379107909781B0203430020994202D0BB
:1040000070BD0120FCE75378012B08D0022BF7D1BB
:10401000002064220021FEF7ABFE0120F0E7947837
:10402000D278050012021443D20502D5620A9340E9
:104030001D000548FEF7C0FF7F2103002140280036
:104040009847C046CA1B0020554200000123037058
:1040500000487047E86400104A780B7812021A434F
:104060008B7810B51B041A43CB781B06134396229A
:10407000D200934200D010BD0348FEF79DFF0021FF
:10408000030008009847C04655420000024B1860E4
:10409000024B19607047C046A4160020A8160020E5
:1040A00010B5024B1878FDF7D7F910BDCB1B0020D7
:1040B000114B70B51A68002A1AD0EFF3108172B64E
:1040C00010680028FCD0BFF35F8F00220B485960B6
:1040D00002701B68BFF35F8F1A6081F310880024A1
:1040E0000025074B1878FDF7B7F92900200070BDAF
:1040F000FA240025A400F4E76C1B0020CC1B002050
:10410000CB1B002070B5040000200E0001F00EFB58
:10411000002835D0002001F021FB002830D0FEF728
:1041200059F90023184A12184B41002B24DB174D74
:10413000280002F039F9002822D0002001F0F6FA18
:1041400000280BD1012000210324404200F0D8FCBC
:104150006442280002F0F8F8200070BD002001F051
:10416000FDFA0028EED021003200002001F002FB11
:10417000041EEED1033CECE70122054B5242D6E788
:1041800003246442E8E7C04640420F009C1B002025
:10419000FFFFFF7FF8B5DE46574680B505000C00EF
:1041A000FEF718F90023364A12184B41002B5ADB50
:1041B000344908008A4602F0F7F8002803D10CBC05
:1041C00092469B46F8BD002001F0B0FA00284ED080
:1041D0000026002C43DD2C4B9B4614E0A91900203F
:1041E00001F03CFB070001200021404200F088FC68
:1041F000002001F0F7FAFEF7EDF8234BF6191860EE
:104200005960B4422BDD002001F042FBA71B0200E5
:10421000B84200DD3A00002AE0D1012000214042EE
:1042200000F06EFC002001F0DDFA002001F07EFAC3
:10423000002814D0002001F02BFB0028E1D1FEF76C
:10424000C9F85B460F001A685B68002184460F4876
:1042500012184B419F4202D8D3D19445D1D9504630
:1042600002F072F8ABE70122094B5242A0E70020AE
:104270000021054B18605960504602F065F89EE732
:1042800040420F009C1B00208810002020A1070046
:10429000FFFFFF7F10B5244C84B00021200002F006
:1042A0006BF800281CD1214B1A68002A16D0EFF3B6
:1042B000108172B610680028FCD0BFF35F8F012414
:1042C0001B48596002781B68D2B20470BFF35F8F3D
:1042D0000020186081F31088002A0AD004B010BDB5
:1042E00001200021404200F00BFC200002F02CF8DD
:1042F000F4E7FDF751FD0400FEF76CF8FA22002305
:10430000920012184B41002B09DB01210291002180
:104310000191084920000091FDF742FDDEE70122EE
:10432000054B5242F1E7C0469C1B00206C1B00204D
:10433000CC1B0020B1400010FFFFFF7F054B10B5E4
:104340001868002804D0044B0022196801F052F8C4
:1043500010BDC046A4160020A8160020D02310B51A
:104360001B0684B01C68FDF717FDFDF7DFFDA042BA
:1043700002D0002004B010BD264B1B7801F09AFC3F
:104380002548FDF7FDFA0120FDF7DEFAFF23234C57
:10439000234920701840FDF785F820780121FDF7AA
:1043A00049F80520FDF760F8002822D1FDF7F4FC5C
:1043B0000400FEF70FF8FA220023920012184B4176
:1043C000002B22DB012102910021019115492000DF
:1043D0000091FDF7E5FC0822040000211248FFF7D8
:1043E00027FC002CC5DB11480121FFF775FD0120DA
:1043F000C0E700220E490520FDF77EF8FCF7FEFF1E
:1044000001000948FDF7E6FAEDE70122094B5242A7
:10441000D8E7C046F86600109C1B0020CB1B00208C
:1044200095420010B14000106C1B0020200F0020AE
:10443000A1400010FFFFFF7F00487047A0650010FB
:10444000004870474C65001070B5040016480378AA
:10445000002B20D0002C06D1C1241448144BA400FA
:104460004380048070BD052C1CD8124B0F48A4005B
:10447000E558811C002304E001330A800231132B2C
:104480000DD0EA5CDCB2002AF6D1C023013464000E
:104490009B001C43E5E7112100F016F8DAE7CA2477
:1044A000A400DEE70020DDE7B41B00201817002081
:1044B00009040000B465001010B5024800F0E2F8ED
:1044C00010BDC0468C1B002030B54B1E012900D109
:1044D000B0E06B4A11780D112C0030349F2900D9BF
:1044E000ABE00470012B00D1C7E00F21147821400C
:1044F0000C003034092900DDA1E04470022B00D10A
:10450000BBE051780D112C0030349F2900D999E07F
:104510008470032B00D1B0E00F21547821400C00AF
:104520003034092900DD8FE0C470042B00D1A4E0F1
:1045300091780D112C0030349F2900D987E0047147
:10454000052B00D199E00F21947821400C003034E4
:10455000092900DD7DE04471062B00D18DE0D17882
:104560000D112C0030349F2900D975E08471072B80
:1045700000D182E00F21D47821400C003034092989
:1045800000DD6BE0C471082B00D176E011790D11CC
:104590002C0030349F2964D80472092B00D16CE0C0
:1045A0000F21147921400C00303409295BDC44725E
:1045B0000A2B62D051790D112C0030349F2955D827
:1045C00084720B2B59D00F21547921400C003034C8
:1045D00009294DDCC4720C2B4FD091790D112C00A0
:1045E00030349F2900D9073404730D2B45D00F2197
:1045F000947921400C003034092901DD37310C0059
:1046000044730E2B39D0D1790D112C0030349F29F1
:1046100000D9073484730F2B2FD0D1790F220A4091
:1046200011003731092A01DC30321100C173102B1F
:1046300023D010300023037030BD073451E73731E9
:104640000C005AE7073463E737310C006CE7073496
:1046500075E737310C007EE7073487E737310C0008
:1046600090E7073498E737310C00A0E70734A7E755
:1046700037310C00C4720C2BAFD1C018DAE7C0463A
:104680008C1B002030B5002589B0040009220021D0
:1046900001A80095FFF7CCFA0922002105A804958E
:1046A000FFF7C6FA4B236A466846137004A90D2229
:1046B00001F042FE1521082220006944FFF7BEFAEE
:1046C00009B030BD10B501210520FCF7B3FE10BDC7
:1046D00010B500220021024800F05CF910BDC04670
:1046E0007C1700208022024B5202DA647047C046D9
:1046F00000201150F0B5C64600B5060000F024F9C0
:104700000C231C4DFF22AB6705201B49FCF7F4FE70
:1047100040239846194C402200212000FFF788FAD8
:10472000414600230127002221202183144967707C
:104730006380E276A1600B6022545F306084404663
:10474000208705380F4922540F4A6360E160A26256
:1047500013606362E16201F047FE80239B052F64D2
:10476000EB649023094A3000EA50FFF7BBFF04BC1A
:104770009046F0BD000011501D0500205C17002080
:1047800084001050000110508000105010D0010023
:104790000B785B0602D14B78052B00D070478A78E6
:1047A000014B1A60FAE7C04600001150F0B5C6464A
:1047B00000B5CC7888780A794B797F21A40701402D
:1047C0001B02C50913434F00A20F1400324E7A1981
:1047D0005201B218907001206840507000205B05B3
:1047E0005B0DD0701383D4768046CA00012D33D080
:1047F0002A488446880162448446B4446046826004
:1048000040461060002933D0254AC90090466246D0
:10481000414451603F223F339343022C00D15B005F
:1048200020487A1901685201B218D1601E4ACB188B
:10483000036051405340802288465201934228D859
:104840004346A4061C4380237F197F011B06F619EB
:104850001C4373681C6011E014488446880162445C
:104860008446B4446046826240461060002909D103
:1048700000236D01761973600D4BF360012004BCB9
:104880009046F0BD084AC9009046624641445162D4
:10489000C0E7FEF763FBD3E75C17002084001050ED
:1048A00004001050681B00200000105080001050C1
:1048B0000001105010B501F097FD10BD10B57F201C
:1048C0000C0020404000E409110000191A00034BBD
:1048D0004001C01800F05EF8012010BD5C170020F8
:1048E0007F23180010B508400B420BD0C909802265
:1048F000400040180649400140181201002101F013
:104900006BFD10BD0223034AC9095B1A9366EEE7EB
:104910005C170020002011507F23180010B50840BC
:104920000B4200D110BD00234000C90941180448C2
:104930004901401800220349C37001F04DFDF1E721
:104940005C170020FFF7FFFF80220D4B520410B5CB
:104950001A600C4B0C491A6010008B689843FBD10D
:104960000A4C9C2200212000FFF762F980220021DE
:1049700052010748FFF75CF90923636710BDC04681
:1049800000E0004000F0004000C000400000115076
:104990000000105070B5837E04000D001600002B3F
:1049A00019D100232100E3820133A682A376256179
:1049B000A01C1B3101F0D0FC002804D080219023E2
:1049C000084A8902D150200001F0E6FC002805D0F9
:1049D0000123237770BD01F0F7FCE2E7200001F02E
:1049E000EBFCF7E700201150024B5878431E98412A
:1049F000C0B270472C150020024B18784007C00F3A
:104A00007047C0462C150020034B1878FF38431E12
:104A10009841C0B27047C046580F0020F8B5CE4646
:104A2000474680B52C4E050033780120FF2B03D07C
:104A30000CBC90469946F8BD532200212748FFF749
:104A4000F7F8274C2000FCF79BFF264B1C60264CF8
:104A500020001430FCF7B0FF200001F0F1FB234BE5
:104A6000234F1C60234B9846002B04D03800FFF7DF
:104A7000EDFA214B1860424600243B78002A23D0EF
:104A80001E4A90461C4A9146A34212D80FD1434673
:104A9000984701343B78E4B2A342F5D22800357040
:104AA000FFF728FE2800FFF70DFE0120C0E70020D9
:104AB000BEE74A461268630094461B19DB00634454
:104AC000002BF4D01B68E3E700F0EEFE3B780020FB
:104AD000002BADD1E2E7C046580F00202C15002076
:104AE000E4140020801500203C0F002084150020D5
:104AF000C51B00204D40001004120020A9580010D2
:104B0000F0B5DE4657464E464546E0B58DB001F05D
:104B1000D7F8002800D10FE1C74BC84D9946C84BC4
:104B200009AC9B462E687269EFF3108172B6136868
:104B3000002BFCD0BFF35F8FB1613000210001F08A
:104B4000C9F97269B369BFF35F8F0021116083F304
:104B50001088002800D1EFE06378082BE2D84A469D
:104B60009B00D3589F466368002BDBD0A068984712
:104B7000D8E77F222179B24E0A405000CB0936187F
:104B8000F618300001273030C378BB43C370C378B8
:104B90000337BB43C370002A00D1F2E0A94AF37C7B
:104BA000002A06D0A84A1278934200D260E19B1AEC
:104BB000DBB2002B00D0BFE0A44E62792078A3685E
:104BC000B047AFE75B4601221B78012113435A46E9
:104BD000137033235846D25C5E468A43C254C25C8B
:104BE00004208243F2540133F25C8A43F254F25CB3
:104BF0008243F254237800209A4600F007FD602299
:104C000023791A40602A0DD0402A00D1BFE0DB068C
:104C1000DB0E012B00D136E1022B00D1D4E0002BBA
:104C200000D1C3E020780021FFF75AFE80212078D0
:104C3000FFF756FE76E7824E3378DB0700D471E744
:104C4000834B002B00D16DE700E000BF6AE77C4E8C
:104C50003378DB0700D465E77E4B002B00D161E79A
:104C600030780007C00F00E000BF5BE7764B754A65
:104C70009846002627781B78002A00D179E0764AEA
:104C800092469E425FD319D1744B380098474346F1
:104C900001361B78F6B2B342F3D2694E532200219B
:104CA0003000FEF7C5FF1022FF21F01CFEF7C0FF09
:104CB00030002022FF211330FEF7BAFF00F09CFCE9
:104CC000674B002B00D12DE700E000BF2AE75E4BC9
:104CD0005C4A9846002627781B78002A1FD05E4A37
:104CE00092469E423AD321D15C4B380098474346C6
:104CF00001361B78F6B2B342F3D2514E5322002153
:104D00003000FEF795FF1022FF21F01CFEF790FF08
:104D100030002022FF211330FEF78AFF07E0380021
:104D200000F000FE43461B78002BE6D0444E00F016
:104D300063FC2379B370F5E60DB03CBC9046994610
:104D4000A246AB46F0BD52461268730094469B19CA
:104D5000DB006344002BB1D05B6896E752461268D3
:104D6000730094469B19DB006344002BDED05B6824
:104D7000BBE7380000F0D6FD43461B78002B9DD1E1
:104D80008BE762792078A36800F054FCCAE63548C6
:104D9000002800D146E700F039FC012150460AAA5C
:104DA00000E000BF002800D0BCE63BE7202A00D18D
:104DB0009EE0002A00D035E76379092B00D931E75E
:104DC000294A9B00D3589F467023217A0B4200D07A
:104DD00028E758460F330B405B00CE09C018194F27
:104DE0008019C07C002F06D0174F3F78B84200D200
:104DF000A0E0C01BC0B2002800D096E0002A00D07E
:104E000047E11A4F0220627990468243012A00D17D
:104E100042E14246002A00D004E75B449E19303646
:104E2000F37808AA9B07DB0F023213805046022357
:104E30000AA900F085FB75E6346600108415002091
:104E40002C1500204D400010C51B00201D5B0010DC
:104E5000000000000000000004120020255900108E
:104E6000000000000000000058660010C06600103E
:104E70005A00D318B14ADB001268D318002B00D1B6
:104E80005AE71E6999E6237A0F2B00D9CAE6AC4A85
:104E90005B44DB78002A05D0AA4A127893425ED39D
:104EA0009B1ADBB2002B00D0BCE6A748A74E00F04F
:104EB000ADFB01215046F3680AAA9847002800D0AC
:104EC00030E66022160023791E401A4200D0A9E67F
:104ED00063790A3B012B00D9A4E600F097FB6379C4
:104EE0000A2B00D120E150460AA900F011FB19E677
:104EF000237A0F2B00D995E6914A5B44DB78002A90
:104F000006D0904A1278934200D2E6E09B1ADBB2B8
:104F1000002B00D086E68C488C4E00F077FB0121F8
:104F20005046F3680AAA98473CE70027002A00D1B8
:104F300068E777E647003818804FC0003F683F18A1
:104F4000002A00D15EE7002F00D16BE6F86800F080
:104F50005DFB01215046FB680AAA984722E7774A81
:104F60005E00F3181668DB00F618002E00D159E633
:104F7000F0689CE7A279029273789A4207D073781E
:104F8000002B00D047E1029B002B00D0EAE05B46FB
:104F9000029A50460AA95A7000F0BAFAC2E573782C
:104FA00008AA02321370504601230AA900F0C8FA79
:104FB000B8E5E088030AC0B20F2B00D932E6644995
:104FC0009A008A5897460AA800F026FB5046A17915
:104FD000FFF77EFB0222337813433370A2E5E388A8
:104FE000012B00D01EE60822337893435A461370F3
:104FF00079E70220317808AB9A1C8B068908DB0F11
:1050000001400B4311E7E388012B00D00AE6082298
:1050100033781343EAE74F4B002B00D102E600E060
:1050200000BF021E00D1FDE5D37891781B020B432F
:1050300050460AA900F084FAB4E6474B002B00D191
:10504000F0E500E000BF021E00D1EBE5504613780A
:105050000AA900F075FAA5E62189FFF7F5F9021E05
:10506000F4D1DFE5022B00D113E13C4B002B00D142
:10507000D8E500E000BF0200002A00D1D2E5D3E766
:10508000FFF7DAF9122302000AA9504600F058FA95
:1050900088E62D482D4F5AE7E288002A08D142467B
:1050A0005B449E193036F378012A21D09B072ED518
:1050B000002F00D136E5F86800F0A8FAFB680AAACC
:1050C000012150469847002000F0A0FA34235A46A8
:1050D000D35CDB0700D525E505E7184A5E00F31829
:1050E0001668DB00F618002E00D19BE5F06814E787
:1050F0009B07DDD51A4B1878FFF70EFC0222F378D8
:1051000093434246F370F3789343F370D0E7144B24
:105110001878FFF7E5FB0222F37813430122F370BE
:10512000F3781343F370C3E708AB9A1C504601238E
:105130000AA9167000F004FAF4E4C0460412002034
:105140004D400010C51B0020395A0010C0660010E9
:105150008066001000000000000000000000000059
:10516000580F0020581EC0B2FFF76AF9002800D17E
:1051700058E543780693022B00D053E50121C2790C
:105180003026931152110B400A4012015B01134368
:105190005A4612780700B24313435A461370C37835
:1051A00082781B021343C318093704930791049BA9
:1051B000BB4200D8ACE0079A7B7801920B2B03D15D
:1051C000FB7801933B78FF187B78042B00D029E50E
:1051D0000026049B584ADB1B9BB20393574B059355
:1051E0001B78B24263D0B846B34256D800D019E516
:1051F000534B544F41465046039A9847082803D9C9
:10520000039A824200D38AE0059B01361B78F6B2EE
:10521000B342E9D206E55046FFF74CFBB378464A65
:105220000193464B002698461B78002A0DD0464F26
:10523000B34225D820D1454B5046984743460136C6
:105240001B78F6B2B342F3D206E0504600F06AFB98
:1052500043461B78002B0FD1532200215846FEF7FE
:10526000E7FC5B461022FF21D81CFEF7E1FC202260
:10527000FF213748FEF7DCFC5B46019A9A7082E614
:1052800018233A68734394466344002BF4D05B6858
:10529000D2E7FFF7D5F80200EEE62B4B1F68182384
:1052A0007343FF18002F00D1BCE4BB68A2E7039B47
:1052B00039001A005046984600F04AFB082800D8EA
:1052C000B0E44246824200D2ACE41E4B9846019BB9
:1052D000012B28D000220AE0BB78D318DBB25B4454
:1052E000D978FF2900D09DE40132DE70D2B2019B53
:1052F0009A42F1D18046330002003900144800F090
:1053000063FD059B47441B78B34200D34FE789E414
:10531000104B002B00D13AE600E000BF37E63B001F
:1053200047469846D3E74246054B92689A42D1D108
:10533000069B0193CEE7C0464D400010C51B0020E0
:1053400051590010C06600100412002025590010A9
:105350003F15002000000000F8B557464E46DE46D7
:1053600045460C00E0B516001F00002A3CD0702313
:1053700098461E4B00259B461D4B9A461AE05B46FD
:105380001B78200099465346997800F0E1FC0028EC
:105390001CD021004846FFF709FA002816D0A37850
:1053A000DA09012A19D00A9A013513702378E41812
:1053B000B54219DA6378052B08D1E3789B079B0F78
:1053C000BB4203D14246A3781A42D8D000203CBC4D
:1053D00090469946A246AB46F8BD0B9A013513702C
:1053E0002378E418B542E5DB0120F0E7580F0020F0
:1053F0002C150020002210B584B001AB01920832B8
:105400005A700E4A9960146858606169EFF310820F
:1054100072B608680028FCD0BFF35F8F1900A26144
:10542000200000F01DFE6269A369BFF35F8F0021B9
:10543000116083F3108804B010BDC04684150020AD
:10544000702270B58B780C001A4201D0002070BD1C
:10545000064B20001D78064B997800F079FC002857
:10546000F4D021002800FFF7A1F9F0E7580F002041
:105470002C1500200B007F2010B51840DB094000E0
:105480003333C318034A04481168C01800F01CFCE9
:1054900010BDC046801500202C1500200B007F2079
:1054A00010B51840DB0940003333C318034A0448E1
:1054B0001168C01800F030FC10BDC04680150020F7
:1054C0002C15002070B57F240C4060000E4CCD09D7
:1054D000241864193034E5780020ED0700D570BD3C
:1054E0000126E578094835430078E570FFF7E6F9CD
:1054F0000028F4D10122E3789343E370E378033288
:105500009343E370EBE7C0462C150020580F0020B2
:1055100070B50A4E0500082230000C00FEF78EFB25
:10552000002161560023C943C90F2800F3600022FF
:10553000C901B360FFF7C6FF70BDC046D01400209C
:10554000F8B5CE4647469046294E80B5814608229A
:1055500030000D001F00FEF771FB4346B3600023CF
:10556000F381EC79AB7924021C43231CBC4200D9A3
:105570003B1C9FB2B381002C12D0002F1ED043469B
:10558000002B32D03B1C402F1ED89FB233787F2B8C
:105590001FD80021174A3B004846FFF793FF09E058
:1055A000002169560023C943C90F00224846C9019A
:1055B000FFF788FF0CBC90469946F8BD33787F2BE7
:1055C00010D980210022E6E740239FB233787F2B59
:1055D000DFD9084C3A0041462000FEF72FFB80211E
:1055E0002200D8E700210022D5E70020E2E7C046EC
:1055F000D0140020EC14002010B514220021024821
:10560000FEF716FB10BDC046D0140020014B1861F8
:105610007047C046D014002010B5054C0100082288
:105620002000FEF70BFB0023A360E36010BDC04623
:10563000D0140020F8B53A4C1D0023780600DA0992
:10564000C9098A4213D00020002D00D0F8BD354B87
:10565000002B03D021003000FFF79AF82369002BBC
:1056600043D022000321300098470120EEE77F2B32
:1056700006D8A068002836D02A002B49FEF7DEFAAB
:10568000A368E28959195219E38892B2E281A160B4
:10569000934214D03F2D12D9A589A81A071C80B2B5
:1056A00040282ED82378BFB27F2B2CD80021AA42C5
:1056B00034D01D4A3B003000FFF704FFC6E72369E2
:1056C000002B05D0220002213000984700280ED080
:1056D000002161560023C943C90F00223000C901CF
:1056E000FFF7F0FEB2E70020B0E70120AEE70021AF
:1056F0003000FFF7F5F830008021FFF7F1F80120C6
:10570000A4E74027CEE7AA4207D0074C3A00200082
:10571000FEF794FA80212200CCE780210022C9E71D
:10572000D014002091470010EC14002010B50400A4
:10573000FFF75AF9002801D1002010BDFFF75CF9EE
:105740000028F9D1B22080004443034800190379AE
:1057500001201840F1E7C04608120020B2239B0048
:10576000584310B5024B1030C01800F07FFB10BD3D
:1057700008120020F0B5B225AD0045432C00C64606
:10578000174F1034E41900B5200092B200F0F0FB7E
:105790000600200000F088FB3F2803D8300004BC3E
:1057A0009046F0BD7B190020D9789846FFF762FE3D
:1057B0000028F3D0200000F077FB3F280AD992237D
:1057C0009B00EA184346D219D97800204023FFF7FE
:1057D00079FEE3E743460020D978FFF75FFEDDE777
:1057E00008120020F8B50400FFF7FEF8002801D1E8
:1057F0000020F8BDFFF700F90028F9D1B2208000A1
:1058000044432500144E2435AD19280000F02EFB2A
:105810000028EDD037190020B978FFF72BFE0028BB
:10582000E6D0A2239B009C466444A41921002800D2
:10583000402200F09DFBB978051E08D0030022002D
:105840000020FFF73FFE0028D2D02800D1E700203B
:10585000FFF724FECCE7C0460812002070B5B22442
:10586000A4004443094B2434E418050092B22000FC
:1058700000F03AFC0600200000F0F8FA3F2801D8BA
:10588000300070BD2800FFF7ADFFF9E708120020D7
:10589000B2239B00584310B5024B2430C01800F0CF
:1058A00003FB10BD08120020B222F0B51B4C83B0E0
:1058B000002120009200FEF7BBF9FF236371184B13
:1058C00080260025E38001270823210020007600A0
:1058D000237332002781658138310095073B1030F2
:1058E00000F08CFA2100200039313200FF31012311
:1058F0000097243000F082FA8E239B00E6183000D7
:10590000FCF73EF890239B002662E6183000E56124
:10591000FCF736F82663656303B0F0BD081200207B
:1059200000C2FFFF10B5094C052200212000FEF740
:105930007FF920002434103000F082FC200000F0B9
:105940007FFC0121200000F09BFC10BD081200200C
:10595000F0B54B79060083B0022B02D18B79022B74
:1059600003D00025280003B0F0BD304FBB78002BDA
:10597000F7D18B7809253B700C780C196378242BB0
:105980000BD1082A02D80FE0AA420DD32378E418DD
:10599000ED186378ADB2242BF6D0052B21D0042B63
:1059A00002D163790A2B2FD0214C200000F07CFA21
:1059B0003F28D7D92600103E0020F178FFF75AFD86
:1059C0000028CFD0200000F06FFA3F2817D98E238F
:1059D0009B00E218F93BF178FF3B0020FFF772FDD6
:1059E000C0E721003000FFF72BFD0028B9D0A378D5
:1059F0007B702378ED18E4186378ADB2CFE7F178C7
:105A00000020FFF74BFDADE70A4B277801930133E8
:105A10000093022202233000E119FFF79DFC0028C9
:105A20009FD00E35ED19ADB2BEE7C046081200207A
:105A3000181200200A120020F8B560231400127812
:105A4000050013400020202B12D12F4E63792779B7
:105A500032781B023B439A420AD16378222B27D02B
:105A600007D8202B17D0212B02D101293ED00120AD
:105A7000F8BD232BFCD1012940D00329F7D1234BBA
:105A8000002BF4D0E178A37809020020194300E04C
:105A900000BF0120ECE7012928D00329E7D11C4BE6
:105AA000002BE4D00020B11DFEF7D6FA0120DFE77D
:105AB000012923D00329DAD101252F003000A37852
:105AC000E478023924021C432740347179402430A1
:105AD00000F0D6FB0F4B002BC9D02A006408002031
